:020000040000fa
:080000000002040000000000f2
:020000040000fa
:0400080014030000dd
:020000040000fa
:04000c0014030000d9
:020000040000fa
:0400100014030000d5
:020000040000fa
:0400140014030000d1
:020000040000fa
:0400180014030000cd
:020000040000fa
:04001c0014030000c9
:020000040000fa
:0400200014030000c5
:020000040000fa
:0400240014030000c1
:020000040000fa
:0400280014030000bd
:020000040000fa
:04002c0014030000b9
:020000040000fa
:0400300014030000b5
:020000040000fa
:0400340014030000b1
:020000040000fa
:0400380014030000ad
:020000040000fa
:04003c0014030000a9
:020000040000fa
:0400400014030000a5
:020000040000fa
:0400440014030000a1
:020000040000fa
:04004800140300009d
:020000040000fa
:04004c001403000099
:020000040000fa
:040050001403000095
:020000040000fa
:04005400c8020000de
:020000040000fa
:04005800140300008d
:020000040000fa
:04005c001403000089
:020000040000fa
:040060001403000085
:020000040000fa
:040064001403000081
:020000040000fa
:04006800140300007d
:020000040000fa
:04006c001403000079
:020000040000fa
:040070001403000075
:020000040000fa
:040074001403000071
:020000040000fa
:04007800140300006d
:020000040000fa
:04007c001403000069
:020000040000fa
:040080001403000065
:020000040000fa
:040084001403000061
:020000040000fa
:04008800140300005d
:020000040000fa
:04008c001403000059
:020000040000fa
:040090001403000055
:020000040000fa
:040094001403000051
:020000040000fa
:04009800140300004d
:020000040000fa
:04009c001403000049
:020000040000fa
:0400a0001403000045
:020000040000fa
:0400a4001403000041
:020000040000fa
:0400a800140300003d
:020000040000fa
:0400ac001403000039
:020000040000fa
:0400b0001403000035
:020000040000fa
:0400b4001403000031
:020000040000fa
:0400b800140300002d
:020000040000fa
:0400bc001403000029
:020000040000fa
:0400c0001403000025
:020000040000fa
:0400c4001403000021
:020000040000fa
:0400c800140300001d
:020000040000fa
:0400cc001403000019
:020000040000fa
:0400d0001403000015
:020000040000fa
:0400d4001403000011
:020000040000fa
:0400d800140300000d
:020000040000fa
:0400dc001403000009
:020000040000fa
:0400e0001403000005
:020000040000fa
:0400e4001403000001
:020000040000fa
:0400e80014030000fd
:020000040000fa
:0400ec0014030000f9
:020000040000fa
:0400f00014030000f5
:020000040000fa
:0400f40014030000f1
:020000040000fa
:0400f80014030000ed
:020000040000fa
:0400fc0014030000e9
:020000040000fa
:0401000014030000e4
:020000040000fa
:0401040014030000e0
:020000040000fa
:0401080014030000dc
:020000040000fa
:04010c0014030000d8
:020000040000fa
:0401100014030000d4
:020000040000fa
:0401140014030000d0
:020000040000fa
:0401180014030000cc
:020000040000fa
:04011c0014030000c8
:020000040000fa
:0401200014030000c4
:020000040000fa
:0401240014030000c0
:020000040000fa
:0401280014030000bc
:020000040000fa
:04012c0014030000b8
:020000040000fa
:0401300014030000b4
:020000040000fa
:0401340014030000b0
:020000040000fa
:0401380014030000ac
:020000040000fa
:04013c0014030000a8
:020000040000fa
:0401400014030000a4
:020000040000fa
:0401440014030000a0
:020000040000fa
:04014800140300009c
:020000040000fa
:04014c001403000098
:020000040000fa
:040150001403000094
:020000040000fa
:040154001403000090
:020000040000fa
:04015800140300008c
:020000040000fa
:04015c001403000088
:020000040000fa
:0402080014030000db
:020000040000fa
:04020c0014030000d7
:020000040000fa
:0402100014030000d3
:020000040000fa
:0402140014030000cf
:020000040000fa
:0402180014030000cb
:020000040000fa
:04021c0014030000c7
:020000040000fa
:0402200014030000c3
:020000040000fa
:0402240014030000bf
:020000040000fa
:0402280014030000bb
:020000040000fa
:04022c0014030000b7
:020000040000fa
:0402300014030000b3
:020000040000fa
:0402340014030000af
:020000040000fa
:0402380014030000ab
:020000040000fa
:04023c0014030000a7
:020000040000fa
:0402400014030000a3
:020000040000fa
:04024400140300009f
:020000040000fa
:04024800140300009b
:020000040000fa
:04024c001403000097
:020000040000fa
:040250001403000093
:020000040000fa
:04025400c8020000dc
:020000040000fa
:04025800140300008b
:020000040000fa
:04025c001403000087
:020000040000fa
:040260001403000083
:020000040000fa
:04026400140300007f
:020000040000fa
:04026800140300007b
:020000040000fa
:04026c001403000077
:020000040000fa
:040270001403000073
:020000040000fa
:04027400140300006f
:020000040000fa
:04027800140300006b
:020000040000fa
:04027c001403000067
:020000040000fa
:040280001403000063
:020000040000fa
:04028400140300005f
:020000040000fa
:04028800140300005b
:020000040000fa
:04028c001403000057
:020000040000fa
:040290001403000053
:020000040000fa
:04029400140300004f
:020000040000fa
:04029800140300004b
:020000040000fa
:04029c001403000047
:020000040000fa
:0402a0001403000043
:020000040000fa
:0402a400140300003f
:020000040000fa
:0402a800140300003b
:020000040000fa
:0402ac001403000037
:020000040000fa
:0402b0001403000033
:020000040000fa
:0402b400140300002f
:020000040000fa
:0402b800140300002b
:020000040000fa
:0402bc001403000027
:020000040000fa
:0402c0001403000023
:020000040000fa
:0402c400140300001f
:020000040000fa
:0402c800140300001b
:020000040000fa
:0402cc001403000017
:020000040000fa
:0402d0001403000013
:020000040000fa
:0402d400140300000f
:020000040000fa
:0402d800140300000b
:020000040000fa
:0402dc001403000007
:020000040000fa
:0402e0001403000003
:020000040000fa
:0402e40014030000ff
:020000040000fa
:0402e80014030000fb
:020000040000fa
:0402ec0014030000f7
:020000040000fa
:0402f00014030000f3
:020000040000fa
:0402f40014030000ef
:020000040000fa
:0402f80014030000eb
:020000040000fa
:0402fc0014030000e7
:020000040000fa
:0403000014030000e2
:020000040000fa
:0403040014030000de
:020000040000fa
:0403080014030000da
:020000040000fa
:04030c0014030000d6
:020000040000fa
:0403100014030000d2
:020000040000fa
:0403140014030000ce
:020000040000fa
:0403180014030000ca
:020000040000fa
:04031c0014030000c6
:020000040000fa
:0403200014030000c2
:020000040000fa
:0403240014030000be
:020000040000fa
:0403280014030000ba
:020000040000fa
:04032c0014030000b6
:020000040000fa
:0403300014030000b2
:020000040000fa
:0403340014030000ae
:020000040000fa
:0403380014030000aa
:020000040000fa
:04033c0014030000a6
:020000040000fa
:0403400014030000a2
:020000040000fa
:04034400140300009e
:020000040000fa
:04034800140300009a
:020000040000fa
:04034c001403000096
:020000040000fa
:040350001403000092
:020000040000fa
:04035400140300008e
:020000040000fa
:04035800140300008a
:020000040000fa
:04035c001403000086
:020000040000fa
:10040000af8720000edf20000e01880000000000f2
:10041000000020000000e000020032000001200087
:100420002002880014000700810007000000e0009f
:1004300003003a006037210001002000020037006d
:100440000000200001002000810f70000100320038
:1004500014000700000020000000e000020032004d
:1004600000000200000000006a110200000000000d
:100470000040da000000fe004440a900204b2000ac
:100480000000e0000300320000002000a00188000e
:100490004440a800000006008a1f78008b1f7800e7
:1004a0000000060091018800800478000000eb0045
:1004b0001a003700e284440032a0b4009905ba0063
:1004c000e284440032a0b4009906ba00e2844400f9
:1004d00032a0b4000006eb00476fde00fd07b2005b
:1004e000636ce10003003a00ebff07000000eb0043
:1004f0000a003700606ce10004003a00005deb0088
:100500008b05e900fdff3e00040037006168e10053
:10051000010032000086eb000b00070019c7ba008b
:100520001905ba000e04e00003003a000a00e000da
:10053000e0ff3a0000000600fe07b2009e018800be
:100540008a047800f5ff3700395dba008b05e900b1
:100550000c003200295dba008b05e900080032006a
:100560000c00e00003003a00e284440032a0b40032
:10057000f5ff370019ddba008b05e900faff3a00f4
:100580008904e800e184440032a0b40000000600c1
:10059000809fbe00829fbe000000fa008560a90017
:1005a00010118000610060000000e0001a003200bd
:1005b000301180000040780071e8b70011872000fa
:1005c00091407800b0c3b30080cf500003003200e8
:1005d00070c8bf00ef4f50000300360010c0b300da
:1005e00072e8b7000c00370070c8bf00ef4f500032
:1005f00009003e0070c8bf008081fb001287200008
:1006000012417800018620008180410082487800f4
:100610000040e80070e8b7000080fa004f01be001b
:100620004f00be00004006000040da000000fe005f
:1006300000000500889fbe008a9fbe0080047800ed
:100640000200e0005b00320001407800814c78003d
:1006500082814400f1f99f00e20f510055003600fd
:1006600091449800a1449800e1f99f00d1f99f00be
:10067000e60f51004f003600b1449800c1f99f00c9
:10068000e80f51004b0036000905ea0063056500dc
:100690000a8444000a055100c1ff2f0001056500ce
:1006a0000080fb008000eb001210200013102000df
:1006b00044000700008cbe000a01440060b99f009e
:1006c00071b99f00e80f55003a00360020049800e9
:1006d00031049800400498005104980020b99f000c
:1006e00031b99f0040b99f0051b99f00f80f5500e4
:1006f000300036006004980071049800000c9800e7
:10070000110c9800200c9800310c9800400c9800b7
:10071000510c980020b19f0031b19f0040b19f0063
:1007200051b19f0060b19f0071b19f0000b99f005f
:1007300011b99f0064016400780141000204440083
:10074000020555006011b8000203be000002be00a1
:100750000403be006022b8000000720081807200b5
:10076000020173008381730010003700009cbe00fb
:100770000294be004004980051049800620498005e
:1007800073049800000c9800110c9800220c98003b
:10079000330c9800400c9800510c9800620c9800a3
:1007a000730c98000a02b1000802b000ff0f550058
:1007b000eeff3e00090078004f05be004f04be006a
:1007c00000000600020ab900001bb9000200b800d0
:0c07d00081004200810043000000060090
:020000040000fa
:1007dc0008040000217100004b00000000dc000048
:1007ec009508000005a6000022210000f041000041
:1007fc005b26000008e200002f1c0000bb0a000072
:10080c00a8940000280800000587000067e200009b
:10081c00581a0000075b000008e10000d0720000cd
:10082c00d88a0000b85b00007d08000005110000ac
:10083c00ec9e0000282300001b6d000008e2000065
:10084c004f8a0000b2a90000291400001308000010
:10085c0005d100002e7100006a5100004c2c0000e4
:10086c0008e500008027000042a4000069b00000e9
:10087c007f08000005aa0000812a0000bd45000089
:10088c00e8a8000008ea0000e4f0000024c9000019
:10089c009fcc00003c08000005080000f505000096
:1008ac00042700006298000008ea00006b62000058
:1008bc0084a10000f94a0000e208000005e90000ec
:1008cc00770500004f840000ee35000008e20000c0
:1008dc0043c300008dfb0000ad5400002508000050
:1008ec0005140000065e0000393600002f4500009c
:1008fc0008ea00000c1c000074d0000011fc000081
:10090c003208000005da000038ba00000e3c000086
:10091c00e78b000008ea0000b0090000e6ff0000c9
:10092c0094bb0000a908000005d7000011290000a5
:10093c00fedc000071d5000008ea00007f83000097
:10094c00a7600000906200001808000005840000f9
:10095c007f6a0000d1910000c652000008ea000036
:10096c002ad800007b8e00004a9f000091080000ee
:10097c0005bd0000aa9d0000161800000615000019
:10098c0008e2000055ad00002d0a0000141f000005
:10099c005d08000005d30000e07c000039cf0000aa
:1009ac0001f0000008ef00003a910000726a0000ac
:1009bc0003bb000096080000e78300006da4000054
:1009cc0092fc000013a7000008ef0000f8fd0000e7
:1009dc00cf620000076f00001e080000e74c00000b
:1009ec00ea4a0000754f0000d6cf000008e2000074
:1009fc00f6110000e42600000d4d0000c6080000b2
:100a0c0005fb0000bfe8000007890000c35100008f
:100a1c0008ef000082270000043f000096a80000a9
:100a2c0058080000e7410000293c0000752a00002e
:100a3c00031c000008ef0000af59000098360000be
:100a4c00aa0f000006080000e6f600009341000023
:100a5c002dec00000e99000008050000291900007b
:100a6c0090e50000aa36000040080000e7fb0000fb
:100a7c00681000007d7700005dc0000008e70000f2
:100a8c00cbb40000ddce000090540000be08000086
:100a9c00e77200008ad6000002f40000ddcc0000f2
:100aac0008e700006a2100000b02000086ec000041
:100abc0015080000e77b00007c3d00006b81000006
:100acc0003d0000008ef00007d61000036940000a8
:100adc007ca00000df080000efcc0000853b00008c
:100aec00dae000005c1c000008e70000e375000081
:100afc00bb390000224b0000a8080000eff90000f1
:100b0c00cee000005eeb00001dcb000008e700000b
:100b1c00bde2000070d50000ab4e00003f080000a5
:100b2c00e7b700008d200000686b00000952000040
:100b3c0008ef0000a11b000090cd00009800000001
:100b4c0063080000ef540000675d00009c1100007a
:100b5c00fc45000008e70000d49b0000c89700008b
:100b6c00be8a000007080000ef5200008d900000c4
:100b7c0063730000d52a000008ef000003bc0000de
:100b8c006e1c000076be00004a080000e7c20000a0
:100b9c00ed670000ba5e00006621000008ef00005f
:100bac00e73f000087be0000e07a00006d080000ff
:100bbc00e7c90000709300001d640000f56c000094
:100bcc0008ef0000f528000008340000b3b6000060
:100bdc002c080000ef3a00000aec00000fdb0000cc
:100bec0056ca000008ef000039a000006eed0000ae
:100bfc0079d0000024080000e76c00000baf000067
:100c0c00a94e000040b5000008e90000b9af000093
:100c1c00bf25000050d1000037080000059e0000e1
:100c2c00dbde00003f940000e96b000008ec0000e4
:100c3c00c5050000aa570000dc8a00005e08000011
:100c4c0005700000da84000084dd0000ca9000000a
:100c5c00070200008100000001c90000c3800000f1
:100c6c00081100000104000000070000180100003a
:100c7c000808000011020000040000000806000033
:100c8c00040a0000051100002401000003400000cc
:100c9c0072660000c38e0000ae5000008dfb000099
:100cac003b8c00004a950000ed0e00009fd900001f
:100cbc004fd50000a23100004ee80000efd5000037
:100ccc00fb820000dd4000006b4f0000344400004c
:100cdc0006a5000036610000232f000079d9000022
:100cec00229d00005eea00008efd000032450000ef
:100cfc00731a0000bcd50000d58f0000b046000070
:100d0c0058ba0000d692000039bf0000e9bf0000bd
:100d1c00c74f000051c7000059180000825900004d
:100d2c00deb80000f7a6000046ac00007b0f000008
:100d3c001bd30000b872000099d900000499000080
:100d4c0064a500006c950000c406000070f1000062
:100d5c00cf6e0000559700000afd0000953800008a
:100d6c0014bc0000101d00007ee800007fe20000b3
:100d7c006b5100008c01000000700000668a0000be
:100d8c005d52000077cf0000e83b0000c0e500009a
:100d9c00ee680000911300002f7300000c1200008d
:100dac00e5f500009b83000073660000a5bd000004
:100dbc001f4100001cd400008ec200009a9b000052
:100dcc006b650000ee7c0000423e00000c6e0000e3
:100ddc0065950000dba6000020bd000089830000a3
:100dec00b4a400009e7e000062d40000407a000093
:100dfc00b70100004ca50000529b000047c6000044
:100e0c0022fd000030a3000047f4000051dc00007c
:100e1c000f4f000078b500008f3500006bcf00003d
:100e2c00f63900005c5000000c670000825900008d
:100e3c00f756000019f0000097f30000c994000069
:100e4c00a60000002ee1000067a6000070fc000068
:100e5c0005f00000c23800005baa00000319000076
:100e6c0008720000081300000101000001010000dd
:100e7c000000000000000000ee83000000100000e5
:100e8c000300000000f0000000c50000c5c5000014
:100e9c00c5c50000c5c50000c5c50000c5c500001e
:100eac00c5c50000c5c50000c5000000000000005d
:100ebc000000000000000000000000000000000026
:100ecc000000000000000000000000000000000016
:100edc000000000000000000000000000000000006
:100eec0000000000000000000000000000000000f6
:100efc0000000000000000000000000000000000e6
:100f0c00000000000000000000000000494e00003e
:100f1c00545f0000435400004c5f0000454e00003d
:100f2c00414200004c4500003a20000000490000fe
:100f3c004e5400005f430000544c00005f50000012
:100f4c00485f0000454e0000414200004c45000047
:100f5c003a200000004900004e5400005f4300009e
:100f6c00544c00005f4d00004f440000454d000004
:100f7c005f4500004e410000424c0000453a000025
:100f8c0020000000494e0000545f00004354000054
:100f9c004c5f000043480000495000005f450000d2
:100fac004e410000424c0000453a00002000000079
:100fbc0046520000525f0000435400004c5f00009a
:100fcc00415f00004d4f0000444500003a200000f6
:100fdc0000460000525200005f430000544c0000d9
:100fec005f4200005f4d00004f440000453a000096
:100ffc002000000046520000525f000043540000e5
:10100c004c5f0000435f00004d4f00004445000062
:10101c003a20000000460000525200005f430000de
:10102c00544c00005f4400005f4d00004f44000032
:10103c00453a000020000000455a0000434f0000d4
:10104c004e460000494700005f5800004f5f00000b
:10105c00545500004e4500003a200000005200009c
:10106c00585f000046490000464f00005f430000f7
:10107c004f5500004e5400003a2000000054000070
:10108c00585f000046490000464f00005f530000c7
:10109c0050410000434500003a200000004300008e
:1010ac0055520000525f00005354000041540000a0
:1010bc00453a000020000000435500005252000049
:1010cc00454e0000545f000043480000414e0000b4
:1010dc004e4500004c3a00002000000075610000f5
:1010ec0072740000206900006e69000074690000d1
:1010fc00616c0000697a0000656400000034000037
:10110c003435000035200000696e00006974000061
:10111c00696100006c6900007a65000064000000e1
:10112c00756100007274000020620000756600009a
:04113c003a00000075
:020000040000fa
:101140000200fa000a05070000c0eb00004f78001b
:10115000010037001e4fe9001e4078000004e00047
:10116000fcff3a000605070000c0eb00004f7800c6
:10117000010037001e4fe9001e4078000004e00027
:10118000fcff3a00f90307000080fa0000000600a7
:101190000600fa00004f78001147980012079800e7
:1011a0002307980020c0b30050e8b7001e41780024
:1011b00011852000824878001e4190002185200082
:1011c000824878001e009000ae0090004808de00c3
:1011d0000040780053e8b7001e009000ae00900079
:1011e0004008de000040780054e8b7001e00900080
:1011f000ae0090004809dd004800de0000007100ec
:10120000c808de000040780055e8b7001e009000d6
:101210000040780056e8b7000185200070c0b30098
:10122000810307000080fa00000006000600fa00b3
:1012300020079800500037002e0090009040780062
:10124000114798002e0090000000e8002007980049
:101250001e409000f04f50001b0036002e00900002
:101260009040780060c6b30080cf500014003a0070
:101270009e40900000c8b30080cf500002003600ae
:1012800040c0b300410037002e0090000000e8008d
:10129000200798001e4090000040e900ae0090003a
:1012a0003c0007001e4090000080fb000000e900a9
:1012b000ae00900000804000200798002e0037000c
:1012c00040c0b300310037000040eb00004f780011
:1012d0000a0037001e81fb002e009000904078002d
:1012e0000085200000004100014878002e00900099
:1012f0000000e800200798001e4fe8001e40900004
:101300009e40780080cf5000f2ff39000e80e80048
:101310008001780012c0b300018520001e409000bb
:1013200085030700e14f40000200320020c0b300f7
:101330001600370050c8bf00f94f500005003a00b2
:101340002e4090000004e0000200320040c0b300d4
:101350000e003700960407000004e00006003a0083
:101360000041eb008040eb000040eb006100070013
:1013700040c0b300050037002e00900010407800f8
:101380000004e000acff3a000040eb000080fa00ef
:10139000000006000400fa00004f780011079800d2
:1013a0009e0190001e41780011c0b30060c6b300da
:1013b000440307000080fa00000006000200fa0063
:1013c000000f78007204070090c1b3007e0407008c
:1013d0001e0078004800de00004078007a04070014
:1013e0001e00780000407800770407006c040700b6
:1013f0000185200010c0b300e00207000080fa0061
:10140000000006000400fa00004f78001147980021
:101410001207980010c3b30050e8b7001e417800cf
:1014200011852000824878001e419000218520000f
:10143000824878001e0090004800de0000407800de
:1014400053e8b7001e0090000040780054e8b70051
:101450000185200050c0b300f30207000080fa00ad
:10146000000006000800fa00004f780011479800bd
:101470001207980043479800544798006547980022
:1014800020c3b30050e8b7001e417800118520004a
:10149000824878001e419000218520008248780013
:1014a0001e0090004800de000040780053e8b700be
:1014b0001e0090000040780054e8b7004e419000b4
:1014c00051852000824878005e41900061852000af
:1014d000824878006e419000718520008248780033
:1014e0000185200080c0b300cf0207000080fa0011
:1014f000000006000400fa00004f78001147980031
:101500002247980000c2b30050e8b7001e4178009f
:1015100011852000824878001e419000218520001e
:10152000824878002e419000318520008248780062
:101530000385200082c0b3000185200040c0b300b5
:10154000fd02070050c8bf0040e8b70051c8bf0007
:1015500041e8b70052c8bf0042e8b70053c8bf0017
:1015600043e8b70054c8bf0044e8b70055c8bf00ff
:1015700045e8b70056c8bf0046e8b70057c8bf00e7
:1015800047e8b7000080fa00000006000800fa00f3
:10159000004f780011479800224798003347980081
:1015a00044479800554798006647980030c1b300fb
:1015b00050e8b7001e41780011852000824878006d
:1015c0001e41900021852000824878002e41900025
:1015d00031852000824878003e41900041852000fe
:1015e000824878004e419000518520008248780062
:1015f0005e41900061852000824878006e41900035
:1016000071852000824878000385200072c0b300f5
:101610000185200080c0b300c702070050c8bf008a
:1016200040e8b70051c8bf0041e8b70052c8bf004a
:1016300042e8b70053c8bf0043e8b70054c8bf0032
:1016400044e8b70055c8bf0045e8b70056c8bf001a
:1016500046e8b7000080fa00000006000200fa0029
:10166000004f780040c3b30050e8b7001e41780037
:1016700011852000824878000185200020c0b30039
:10168000690207000080fa00000006000000fa006e
:101690005068ef000185200010c0b300620207000f
:1016a0000080fa00000006000200fa00004f7800f7
:1016b00050c1b30050e8b7001e41780011852000ea
:1016c000824878000385200022c0b30001852000f5
:1016d00020c0b3009802070050c8bf0040e8b70020
:1016e00051c8bf0041e8b7000080fa0000000600c2
:1016f0000000fa0010c0b30050e8b70003852000d6
:1017000092c0b3000185200010c0b3008a02070018
:1017100050c8bf0040e8b70051c8bf000080fb00c0
:10172000c800dd0052c8bf000080fb00010070004f
:101730001042880053c8bf0044e8b70054c8bf0037
:101740000080fb00c800dd0055c8bf000080fb0022
:10175000010070003042880056c8bf0048e8b7005a
:1017600057c8bf0049e8b70058c8bf004ae8b700eb
:101770000080fa00000006000400fa00004f780024
:10178000110798009e0190001e4178008040eb00f8
:1017900060c6b3004b0207000080fa00000006009c
:1017a0000400fa00004f7800110798009e01900095
:1017b0001e4178008040eb0070c7b3002a0207008a
:1017c0000080fa00000006000400fa00004f7800d4
:1017d000114798002247980020c1b30050e8b70095
:1017e0001e41780011852000824878001e4190003b
:1017f00021852000824878002e419000318520000c
:101800008248780052c8bf0003852000004178005c
:101810000185200040c0b3004702070050c8bf0048
:1018200040e8b70051c8bf0041e8b70052c8bf0048
:1018300042e8b70053c8bf0043e8b70054c8bf0030
:1018400044e8b70055c8bf0045e8b70056c8bf0018
:1018500046e8b70057c8bf0047e8b70058c8bf0000
:1018600048e8b70059c8bf0049e8b7005ac8bf00e8
:101870004ae8b7005bc8bf004be8b7005cc8bf00d0
:101880004ce8b7005dc8bf004de8b7005ec8bf00b8
:101890004ee8b7005fc8bf004fe8b7000080fa000d
:1018a000000006000000fa0030c3b30050e8b700a3
:1018b0000385200022c0b3000185200010c0b300c2
:1018c0001d02070050c8bf0040e8b70051c8bf0064
:1018d00041e8b7000080fa00000006000600fa00a8
:1018e000004f780011079800220798001e80fb0027
:1018f0004400de00804078001e80fb004400de00d3
:1019000000407800e94f500002003e0000c3b300e1
:101910000100370070c3b30080c040001e0090007b
:10192000014878001e417800ef4061001e80fb00f6
:101930006f006000e90f500002003c0000c3b300dc
:101940000100370070c3b30080c040002e0090003b
:10195000014878000080fa00000006000000fa004c
:101960000041eb0041c0b30010c0b30096ff070078
:10197000400620004703070050c8bf0052872000e0
:1019800041872000d5ff0700c07828000101200012
:10199000d902070074c8bf00c502070075c8bf00a0
:1019a000c302070080c4b300c10207004006200044
:1019b0003803070051c8bf0052872000418720002c
:1019c000c6ff0700d079280031012000ca020700b5
:1019d00074c8bf00b602070075c8bf00b402070094
:1019e00080c4b300b20207004006200029030700ac
:1019f00052c8bf005287200041872000b7ff070070
:101a0000107b280061012000bb02070074c8bf00e2
:101a1000a702070075c8bf00a502070080c4b30075
:101a2000a3020700400620001a03070053c8bf00a6
:101a30005287200041872000a8ff0700807c2800f3
:101a400051012000ac02070074c8bf0098020700d3
:101a500075c8bf009602070080c4b3009402070057
:101a60000041eb0041c0b30020c0b30056ff0700a7
:101a7000400620000703070050c8bf00528720001f
:101a80004187200095ff0700e07d2800010120002c
:101a90009902070074c8bf008502070075c8bf001f
:101aa0008302070080c4b3008102070040062000c3
:101ab000f802070051c8bf0052872000418720006c
:101ac00086ff0700f07e2800010120008a0207003f
:101ad00074c8bf007602070075c8bf007402070013
:101ae00080c4b3007202070040062000e90207002c
:101af00052c8bf00528720004187200077ff0700af
:101b000000802800010120007b02070074c8bf008c
:101b10006702070075c8bf006502070080c4b300f4
:101b20006302070040062000da02070053c8bf0026
:101b3000528720004187200068ff0700108128009d
:101b4000010120006c02070074c8bf0058020700a2
:101b500075c8bf005602070080c4b30054020700d6
:101b600032c0b30011c0b30040c2b30016ff07007b
:101b700040062000c702070050c8bf00528720005f
:101b80004187200055ff0700208228002101200006
:101b90005902070074c8bf004502070075c8bf009e
:101ba0004302070080c4b300410207000080fa002e
:101bb000000006000000fa000040eb00bafe07003b
:101bc00040062000b302070050c8bf005287200023
:101bd0004187200041ff070050832800f1002000ca
:101be0004502070074c8bf003102070075c8bf0076
:101bf0002f02070080c4b3002d020700400620001a
:101c0000a402070051c8bf0052872000418720006e
:101c100032ff070050842800f10020003602070040
:101c200074c8bf002202070075c8bf002002070069
:101c300080c4b3001e0207000080fa000000060006
:101c40000000fa0017ff070040062000910207007d
:101c500050c8bf0052872000418720001fff0700a7
:101c600050852800c10020002302070074c8bf006f
:101c70000f02070075c8bf000d02070080c4b30043
:101c80000b020700400620008202070051c8bf0077
:101c9000528720004187200010ff0700208628007f
:101ca000110120001402070074c8bf0000020700e1
:101cb00075c8bf00fe01070080c4b300fc01070027
:101cc0000080fa00000006000200fa000000eb00ad
:101cd000000f78001afd0700010037001e0fe80012
:101ce000b0438000300090009e0f5000fbff3e008c
:101cf0000080fa00000006000200fa00f2ff070070
:101d00000d003700f0ff2700000f780000000000f2
:101d10001e00780000f0a7000000ea000000ea00c2
:101d20004f00de00004078001e0fe9000004e000d4
:101d3000f7ff3a00e4ff0700b0438000100078008e
:101d40003afd07000004e000eeff3a000041eb001e
:101d50008040eb000040eb00e6fd07000080fa0049
:101d6000000006000200fa00004f78000041eb007e
:101d70008040eb000040eb00defd070020c0b30018
:101d800049fe070085c0b30084c0b3008041eb006a
:101d90000001eb008040eb001e407800b1fd070021
:101da0000080fa00000006000400fa00004f7800ee
:101db000110798000041eb008040eb000040eb0071
:101dc000ccfd070010c0b30037fe07005074280098
:101dd000104078009e00900067fe070050742800b5
:101de000104078000080fb000001780001c3b300c0
:101df0001e40780083fd07000080fa000000060006
:101e00000000fa00511680000000240000806000ed
:101e10000000e00016003a000041eb008040eb00bb
:101e20000040eb00b3fd070042c8bf000080fb008c
:101e3000700060000000e0000600320050742800ce
:101e4000104078000180200055fe070010c0b3004c
:101e50000800370042c8bf000080fb006800600037
:101e60000000e0000200320020c0b3000efe0700b8
:101e70000040eb000080fa00000006000000fa00bd
:101e80005116800000002400008060000000e00087
:101e90000c003a000041eb008040eb000040eb00fa
:101ea00094fd070042c8bf008080fb0000022000b4
:101eb000008060000000e0000200320010c0b300ab
:101ec000010037000040eb000080fa00000006002f
:101ed0000000fa005116800000002400008060001d
:101ee0000000e00022003a000041eb008040eb00df
:101ef0000040eb007ffd070046c8bf000080fb00ec
:101f0000680060000000e0000600320010c0b3006e
:101f1000d2fd070020c0b300e3fd070080c0b3007e
:101f2000cefd070042c8bf000080fb0070006000cb
:101f30000000e000070032000040eb00dafd07007f
:101f400040c8bf000180200015fe070010c0b3008c
:101f50000800370042c8bf000080fb006800600036
:101f60000000e0000200320020c0b300cefd0700f8
:101f70000040eb000080fa00000006000800fa00b4
:101f800040479800310798000040eb00004f780070
:101f90000071220010079800140037007c01070030
:101fa00040c4b300880107008d010700004f78008e
:101fb0001e407800e14f400008003a004e4090007b
:101fc0000004e00003003200be0090004e4090008c
:101fd0009001070072010700070037007001070039
:101fe0001e0090000000e900100798001e009000fd
:101ff0000000e000e9ff3a001e0090000000e00051
:1020000001003a00ffff37001e407800e14f40001a
:1020100002003a0010c0b30078e8b7001e40780014
:102020000080fa00000006000400fa00004f78006b
:1020300011079800010037003900070078c8bf0079
:102040000004e000fcff3200510107009e009000f8
:102050001e40780067010700510107007868ef0013
:102060000080fa00000006000600fa00004f780029
:102070001147980022479800230798001e409000bf
:102080000004e000050032000100370024000700d2
:1020900078c8bf000004e000fcff32003c010700ec
:1020a0001e40780048010700ae0090002e409000ce
:1020b000580107003a0107007868ef000080fa0035
:1020c000000006000600fa00004f78001147980053
:1020d00022479800230798001e4090000004e0006b
:1020e00005003200010037000d00070078c8bf006e
:1020f0000004e000fcff3200250107001e407800cc
:1021000031010700ae0090002e4090003901070019
:10211000230107007868ef000080fa000000060045
:102120000000fa008000eb000040eb0093ff070086
:102130000080fa00000006000800fa00004f780056
:102140001107980042479800330798009e009000be
:102150001e407800b4ff0700be0090004e40900083
:1021600086ff07000080fa00000006000000fa0069
:102170007868ef000080fa00000006000000fa0016
:10218000c9e2a900cde2a800c022a900c422a8008b
:10219000c9a2a900c942a800c962a900c9c2a80071
:1021a00042a2a8001112800030fe2f0000806000c3
:1021b0008001b3001012880011128000c0ff2f00b0
:1021c000008060000010a0001012880042c2a90028
:1021d0004302a8004342a90040c2a9008540a900cb
:1021e00041e2a8000080fa00000006000200fa00a8
:1021f000004f78001e80fb004012880000000000a5
:102200002104800000402000008060000000e00009
:10221000fbff32008540a90040128000004078009a
:102220000080fa00000006000600fa00100798007f
:1022300041479800cde2a9000040eb00004f780034
:10224000060037001e80fb009e00900000804000ca
:1022500010407800e5ff07001e4fe8004e40900058
:102260009e40780080cf5000f6ff3900cde2a800f4
:102270000080fa00000006000600fa00881f7800bf
:102280001007980041479800cde2a9000040eb00fc
:10229000004f7800070037001e80fb009e00900072
:1022a0000084400000c0eb00d0ff0700004c780025
:1022b0001e4fe8004e4090009e40780080cf5000b6
:1022c000f5ff3900cde2a8004f0478000080fa0045
:1022d000000006000000fa000080eb006019880092
:1022e000213a8000f08f2f0000806000203a8800a3
:1022f000d0000700a1ff07004a0007004087280020
:10230000010120007c0007007bfe0700b043800035
:102310002040900093fe0700508828000101200013
:10232000750007004106200030002000c6000700ad
:1023300001003700000000001000070072c8bf0055
:102340000004e000fbff32006089280091002000bb
:1023500069000700010120000086200066000700d8
:10236000020120008000eb0000862000b1f8070089
:102370007068ef007268ef00efff37000000fa00ae
:10238000d3fe0700e14f500024003a00b043800024
:10239000004890000080fb000000e00003003200d5
:1023a000e10f50000f0032001c0037000101200037
:1023b000008020005000070009c8bf008080fb009b
:1023c000400620000088b9008000780000d42e006c
:1023d0000080400080007800100020009a00070074
:1023e0000e0037000101200000802000420007009d
:1023f00009c8bf008080fb00400620000088b900ab
:102400008000780000d42e0000804000800078001a
:10241000100020008c000700000000000080fa007f
:10242000000006000000fa00c842a800c8e2a900a7
:102430000111800090ff2f000080600000118800d3
:102440002002a9002062a800700620004011880028
:102450005105800080ff2f00008060000020a00058
:102460005005880041058000f0ff280000806000d2
:1024700000e0a000400588009580a9009560a800b4
:1024800021e2a8002342a8000000000011118000f2
:1024900000202000008060000000e000fbff3a0008
:1024a00040052000201188000080fa00000006008e
:1024b0000200fa00004f78000000000011118000b7
:1024c00000202000008060000000e000fbff3a00d8
:1024d0001e80fb0020118800000000001111800008
:1024e00000102000008060000000e000fbff3200d0
:1024f0000080fa00000006000600fa0010079800ad
:10250000210798000000eb00000f78000c00370056
:1025100000000000111180000020200000806000f9
:102520000000e000fbff3a001e0090001e0040008b
:10253000104078000080fb00201188001e0fe8008a
:102540002e0090009e007800808f5000f0ff390030
:1025500000000000111180000010200000806000c9
:102560000000e000fbff32000080fa0000000600df
:102570000000fa00c422a8000080fa000000060053
:102580000000fa00c422a9000080fa000000060042
:102590000000fa00cde2a9000080fa000000060069
:1025a0000000fa00cde2a8000080fa00000006005a
:1025b0000000fa00501680004e00de00614060000e
:1025c0000080fa00000006000200fa00004f7800c8
:1025d0001e40780005ff07000080fa00000006009a
:1025e0000000fa0000c0eb0000ff07000080fa00c6
:1025f000000006000400fa00004f78001107980060
:102600009e4078001e00900007ff07000080fa003f
:10261000000006000400fa00004f7800110798003f
:102620009e4078001e00900013ff07000080fa0013
:10263000000006000000fa00c982a900cd82a900ae
:102640000080fa00000006000600fa00100798005b
:10265000210798000000eb00000f7800070037000a
:10266000cd82a8002e0090000a000700cd82a900ac
:102670002e009000070007001e0fe8001e009000cb
:102680009e007800808f5000f5ff39000080fa002e
:10269000000006000600fa00200798000000eb008a
:1026a000000f78000b0037000000eb0010079800c7
:1026b000030037001e0090000000e800100798009b
:1026c0009e0090002e009000808f5000f9ff39008e
:1026d0001e0fe800703e20009e007800808f5000a2
:0c26e000f1ff36000080fa000000060048
:020000040000fa
:1026ec0074080000020000000000000076080000e2
:1026fc0002000000020000004287000000080000f9
:10270c0040000000000000007808000002000000fb
:10271c000000000040080000200000000000000045
:10272c006008000014000000000000000000000021
:020000040000fa
:0200000401f009
:04000c008700000069
:020000040000fa
:0200000401f009
:04001000fb000000f1
:00000001FF
