:020000040000fa
:080000000002040000000000f2
:020000040000fa
:040008001c030000d5
:020000040000fa
:04000c001c030000d1
:020000040000fa
:040010001c030000cd
:020000040000fa
:040014001c030000c9
:020000040000fa
:040018001c030000c5
:020000040000fa
:04001c001c030000c1
:020000040000fa
:040020001c030000bd
:020000040000fa
:040024001c030000b9
:020000040000fa
:040028001c030000b5
:020000040000fa
:04002c001c030000b1
:020000040000fa
:040030001c030000ad
:020000040000fa
:040034001c030000a9
:020000040000fa
:040038001c030000a5
:020000040000fa
:04003c001c030000a1
:020000040000fa
:040040001c0300009d
:020000040000fa
:040044001c03000099
:020000040000fa
:040048001c03000095
:020000040000fa
:04004c001c03000091
:020000040000fa
:040050001c0300008d
:020000040000fa
:04005400c8020000de
:020000040000fa
:040058001c03000085
:020000040000fa
:04005c001c03000081
:020000040000fa
:040060001c0300007d
:020000040000fa
:040064001c03000079
:020000040000fa
:040068001c03000075
:020000040000fa
:04006c001c03000071
:020000040000fa
:040070001c0300006d
:020000040000fa
:040074001c03000069
:020000040000fa
:040078001c03000065
:020000040000fa
:04007c001c03000061
:020000040000fa
:040080001c0300005d
:020000040000fa
:040084001c03000059
:020000040000fa
:040088001c03000055
:020000040000fa
:04008c001c03000051
:020000040000fa
:040090001c0300004d
:020000040000fa
:040094001c03000049
:020000040000fa
:040098001c03000045
:020000040000fa
:04009c001c03000041
:020000040000fa
:0400a0001c0300003d
:020000040000fa
:0400a4001c03000039
:020000040000fa
:0400a8001c03000035
:020000040000fa
:0400ac001c03000031
:020000040000fa
:0400b0001c0300002d
:020000040000fa
:0400b4001c03000029
:020000040000fa
:0400b8001c03000025
:020000040000fa
:0400bc001c03000021
:020000040000fa
:0400c0001c0300001d
:020000040000fa
:0400c4001c03000019
:020000040000fa
:0400c8001c03000015
:020000040000fa
:0400cc001c03000011
:020000040000fa
:0400d0001c0300000d
:020000040000fa
:0400d4001c03000009
:020000040000fa
:0400d8001c03000005
:020000040000fa
:0400dc001c03000001
:020000040000fa
:0400e0001c030000fd
:020000040000fa
:0400e4001c030000f9
:020000040000fa
:0400e8001c030000f5
:020000040000fa
:0400ec001c030000f1
:020000040000fa
:0400f0001c030000ed
:020000040000fa
:0400f4001c030000e9
:020000040000fa
:0400f8001c030000e5
:020000040000fa
:0400fc001c030000e1
:020000040000fa
:040100001c030000dc
:020000040000fa
:040104001c030000d8
:020000040000fa
:040108001c030000d4
:020000040000fa
:04010c001c030000d0
:020000040000fa
:040110001c030000cc
:020000040000fa
:040114001c030000c8
:020000040000fa
:040118001c030000c4
:020000040000fa
:04011c001c030000c0
:020000040000fa
:040120001c030000bc
:020000040000fa
:040124001c030000b8
:020000040000fa
:040128001c030000b4
:020000040000fa
:04012c001c030000b0
:020000040000fa
:040130001c030000ac
:020000040000fa
:040134001c030000a8
:020000040000fa
:040138001c030000a4
:020000040000fa
:04013c001c030000a0
:020000040000fa
:040140001c0300009c
:020000040000fa
:040144001c03000098
:020000040000fa
:040148001c03000094
:020000040000fa
:04014c001c03000090
:020000040000fa
:040150001c0300008c
:020000040000fa
:040154001c03000088
:020000040000fa
:040158001c03000084
:020000040000fa
:04015c001c03000080
:020000040000fa
:040208001c030000d3
:020000040000fa
:04020c001c030000cf
:020000040000fa
:040210001c030000cb
:020000040000fa
:040214001c030000c7
:020000040000fa
:040218001c030000c3
:020000040000fa
:04021c001c030000bf
:020000040000fa
:040220001c030000bb
:020000040000fa
:040224001c030000b7
:020000040000fa
:040228001c030000b3
:020000040000fa
:04022c001c030000af
:020000040000fa
:040230001c030000ab
:020000040000fa
:040234001c030000a7
:020000040000fa
:040238001c030000a3
:020000040000fa
:04023c001c0300009f
:020000040000fa
:040240001c0300009b
:020000040000fa
:040244001c03000097
:020000040000fa
:040248001c03000093
:020000040000fa
:04024c001c0300008f
:020000040000fa
:040250001c0300008b
:020000040000fa
:04025400c8020000dc
:020000040000fa
:040258001c03000083
:020000040000fa
:04025c001c0300007f
:020000040000fa
:040260001c0300007b
:020000040000fa
:040264001c03000077
:020000040000fa
:040268001c03000073
:020000040000fa
:04026c001c0300006f
:020000040000fa
:040270001c0300006b
:020000040000fa
:040274001c03000067
:020000040000fa
:040278001c03000063
:020000040000fa
:04027c001c0300005f
:020000040000fa
:040280001c0300005b
:020000040000fa
:040284001c03000057
:020000040000fa
:040288001c03000053
:020000040000fa
:04028c001c0300004f
:020000040000fa
:040290001c0300004b
:020000040000fa
:040294001c03000047
:020000040000fa
:040298001c03000043
:020000040000fa
:04029c001c0300003f
:020000040000fa
:0402a0001c0300003b
:020000040000fa
:0402a4001c03000037
:020000040000fa
:0402a8001c03000033
:020000040000fa
:0402ac001c0300002f
:020000040000fa
:0402b0001c0300002b
:020000040000fa
:0402b4001c03000027
:020000040000fa
:0402b8001c03000023
:020000040000fa
:0402bc001c0300001f
:020000040000fa
:0402c0001c0300001b
:020000040000fa
:0402c4001c03000017
:020000040000fa
:0402c8001c03000013
:020000040000fa
:0402cc001c0300000f
:020000040000fa
:0402d0001c0300000b
:020000040000fa
:0402d4001c03000007
:020000040000fa
:0402d8001c03000003
:020000040000fa
:0402dc001c030000ff
:020000040000fa
:0402e0001c030000fb
:020000040000fa
:0402e4001c030000f7
:020000040000fa
:0402e8001c030000f3
:020000040000fa
:0402ec001c030000ef
:020000040000fa
:0402f0001c030000eb
:020000040000fa
:0402f4001c030000e7
:020000040000fa
:0402f8001c030000e3
:020000040000fa
:0402fc001c030000df
:020000040000fa
:040300001c030000da
:020000040000fa
:040304001c030000d6
:020000040000fa
:040308001c030000d2
:020000040000fa
:04030c001c030000ce
:020000040000fa
:040310001c030000ca
:020000040000fa
:040314001c030000c6
:020000040000fa
:040318001c030000c2
:020000040000fa
:04031c001c030000be
:020000040000fa
:040320001c030000ba
:020000040000fa
:040324001c030000b6
:020000040000fa
:040328001c030000b2
:020000040000fa
:04032c001c030000ae
:020000040000fa
:040330001c030000aa
:020000040000fa
:040334001c030000a6
:020000040000fa
:040338001c030000a2
:020000040000fa
:04033c001c0300009e
:020000040000fa
:040340001c0300009a
:020000040000fa
:040344001c03000096
:020000040000fa
:040348001c03000092
:020000040000fa
:04034c001c0300008e
:020000040000fa
:040350001c0300008a
:020000040000fa
:040354001c03000086
:020000040000fa
:040358001c03000082
:020000040000fa
:04035c001c0300007e
:020000040000fa
:10040000cf8a20000edf20000e01880000000000cf
:10041000000020000000e000020032000001200087
:100420002002880014000700850007000000e0009b
:1004300003003a00c05c21000100200002003700e8
:100440000000200001002000810f70000100320038
:1004500014000700000020000000e000020032004d
:100460000000020000000000741402000000000000
:100470000040da000000fe004440a900204b2000ac
:100480000000e0000300320000002000a00188000e
:100490004440a800000006008a1f78008b1f7800e7
:1004a0000000060091018800800478000000eb0045
:1004b0001a003700e284440032a0b4009905ba0063
:1004c000e284440032a0b4009906ba00e2844400f9
:1004d00032a0b4000006eb00476fde00fd07b2005b
:1004e000636ce10003003a00ebff07000000eb0043
:1004f0000a003700606ce10004003a00005deb0088
:100500008b05e900fdff3e00040037006168e10053
:10051000010032000086eb000b00070019c7ba008b
:100520001905ba000e04e00003003a000a00e000da
:10053000e0ff3a0000000600fe07b2009e018800be
:100540008a047800f5ff3700395dba008b05e900b1
:100550000c003200295dba008b05e900080032006a
:100560000c00e00003003a00e284440032a0b40032
:10057000f5ff370019ddba008b05e900faff3a00f4
:100580008904e800e184440032a0b40000000600c1
:10059000809fbe00829fbe000000fa008560a90017
:1005a00010118000610060000000e0001e003200b9
:1005b000301180000040780041e8b700118420002d
:1005c00091407800b0c3b30080cf500005003200e6
:1005d0000184200091407800f0c3b30080cf500028
:1005e0000300360010c0b30042e8b7000e00370029
:1005f0000184200091407800f0c3b30080cf500008
:1006000009003e0040c8bf008081fb00128420002a
:1006100012417800018020008180410082487800ea
:100620000040e80040e8b7000080fa004f01be003b
:100630004f00be00004006000040da000000fe004f
:1006400000000500889fbe008a9fbe0080047800dd
:100650000200e0005b00320001407800814c78002d
:1006600082814400f1f99f00e20f510055003600ed
:1006700091449800a1449800e1f99f00d1f99f00ae
:10068000e60f51004f003600b1449800c1f99f00b9
:10069000e80f51004b0036000905ea0063056500cc
:1006a0000a8444000a055100c1ff2f0001056500be
:1006b0000080fb008000eb001210200013102000cf
:1006c00044000700008cbe000a01440060b99f008e
:1006d00071b99f00e80f55003a00360020049800d9
:1006e00031049800400498005104980020b99f00fc
:1006f00031b99f0040b99f0051b99f00f80f5500d4
:10070000300036006004980071049800000c9800d6
:10071000110c9800200c9800310c9800400c9800a7
:10072000510c980020b19f0031b19f0040b19f0053
:1007300051b19f0060b19f0071b19f0000b99f004f
:1007400011b99f0064016400780141000204440073
:10075000020555006011b8000203be000002be0091
:100760000403be006022b8000000720081807200a5
:10077000020173008381730010003700009cbe00eb
:100780000294be004004980051049800620498004e
:1007900073049800000c9800110c9800220c98002b
:1007a000330c9800400c9800510c9800620c980093
:1007b000730c98000a02b1000802b000ff0f550048
:1007c000eeff3e00090078004f05be004f04be005a
:1007d00000000600020ab900001bb9000200b800c0
:0c07e00081004200810043000000060080
:020000040000fa
:1007ec0008040000217100004b00000000dc000038
:1007fc009508000005a6000022210000f041000031
:10080c005b26000008e200002f1c0000bb0a000061
:10081c00a8940000280800000587000067e200008b
:10082c00581a0000075b000008e10000d0720000bd
:10083c00d88a0000b85b00007d080000051100009c
:10084c00ec9e0000282300001b6d000008e2000055
:10085c004f8a0000b2a90000291400001308000000
:10086c0005d100002e7100006a5100004c2c0000d4
:10087c0008e500008027000042a4000069b00000d9
:10088c007f08000005aa0000812a0000bd45000079
:10089c00e8a8000008ea0000e4f0000024c9000009
:1008ac009fcc00003c08000005080000f505000086
:1008bc00042700006298000008ea00006b62000048
:1008cc0084a10000f94a0000e208000005e90000dc
:1008dc00770500004f840000ee35000008e20000b0
:1008ec0043c300008dfb0000ad5400002508000040
:1008fc0005140000065e0000393600002f4500008c
:10090c0008ea00000c1c000074d0000011fc000070
:10091c003208000005da000038ba00000e3c000076
:10092c00e78b000008ea0000b0090000e6ff0000b9
:10093c0094bb0000a908000005d700001129000095
:10094c00fedc000071d5000008ea00007f83000087
:10095c00a7600000906200001808000005840000e9
:10096c007f6a0000d1910000c652000008ea000026
:10097c002ad800007b8e00004a9f000091080000de
:10098c0005bd0000aa9d0000161800000615000009
:10099c0008e2000055ad00002d0a0000141f0000f5
:1009ac005d08000005d30000e07c000039cf00009a
:1009bc0001f0000008ef00003a910000726a00009c
:1009cc0003bb000096080000e78300006da4000044
:1009dc0092fc000013a7000008ef0000f8fd0000d7
:1009ec00cf620000076f00001e080000e74c0000fb
:1009fc00ea4a0000754f0000d6cf000008e2000064
:100a0c00f6110000e42600000d4d0000c6080000a1
:100a1c0005fb0000bfe8000007890000c35100007f
:100a2c0008ef000082270000043f000096a8000099
:100a3c0058080000e7410000293c0000752a00001e
:100a4c00031c000008ef0000af59000098360000ae
:100a5c00aa0f000006080000e6f600009341000013
:100a6c002dec00000e99000008050000291900006b
:100a7c0090e50000aa36000040080000e7fb0000eb
:100a8c00681000007d7700005dc0000008e70000e2
:100a9c00cbb40000ddce000090540000be08000076
:100aac00e77200008ad6000002f40000ddcc0000e2
:100abc0008e700006a2100000b02000086ec000031
:100acc0015080000e77b00007c3d00006b810000f6
:100adc0003d0000008ef00007d6100003694000098
:100aec007ca00000df080000efcc0000853b00007c
:100afc00dae000005c1c000008e70000e375000071
:100b0c00bb390000224b0000a8080000eff90000e0
:100b1c00cee000005eeb00001dcb000008e70000fb
:100b2c00bde2000070d50000ab4e00003f08000095
:100b3c00e7b700008d200000686b00000952000030
:100b4c0008ef0000a11b000090cd000098000000f1
:100b5c0063080000ef540000675d00009c1100006a
:100b6c00fc45000008e70000d49b0000c89700007b
:100b7c00be8a000007080000ef5200008d900000b4
:100b8c0063730000d52a000008ef000003bc0000ce
:100b9c006e1c000076be00004a080000e7c2000090
:100bac00ed670000ba5e00006621000008ef00004f
:100bbc00e73f000087be0000e07a00006d080000ef
:100bcc00e7c90000709300001d640000f56c000084
:100bdc0008ef0000f528000008340000b3b6000050
:100bec002c080000ef3a00000aec00000fdb0000bc
:100bfc0056ca000008ef000039a000006eed00009e
:100c0c0079d0000024080000e76c00000baf000056
:100c1c00a94e000040b5000008e90000b9af000083
:100c2c00bf25000050d1000037080000059e0000d1
:100c3c00dbde00003f940000e96b000008ec0000d4
:100c4c00c5050000aa570000dc8a00005e08000001
:100c5c0005700000da84000084dd0000ca900000fa
:100c6c00070200008100000001c90000c3800000e1
:100c7c00081100000104000000070000180100002a
:100c8c000808000011020000040000000806000023
:100c9c00040a0000051100002401000003400000bc
:100cac0072660000fc0c0000a27e00004b8b000062
:100cbc0083350000433f0000274400009978000072
:100ccc0098e10000e412000016fd000047540000fb
:100cdc0007860000cb230000558d000039ea000088
:100cec00c9e9000030d400008c73000059dd00000d
:100cfc00ff4b0000629500000bed00004935000031
:100d0c00458d00007f2d000043e8000093d80000c3
:100d1c00d9f200006aa60000068f0000c1ef0000a7
:100d2c00d7c9000020ff0000e92d0000969f0000ad
:100d3c0032480000bc3f0000a99d0000b31c00001d
:100d4c00cd4800001aeb000003d90000585b0000ee
:100d5c0026ac0000df06000004e60000b62600000a
:100d6c00aacb0000d6460000ec430000465300001e
:100d7c00888d0000f1fd00007eab0000fa7a0000c7
:100d8c0020bb00004c01000000700000667f0000da
:100d9c00e0eb000060210000fe270000f3070000dc
:100dac00024000000ab60000abbf0000bc1c0000f3
:100dbc0064dd00006d4d0000ef8900008a310000f9
:100dcc00d0c10000b23500002c44000047410000a7
:100ddc0075fe0000ff400000acd200000c050000c6
:100dec0010dd00005c070000f19700009f0400007c
:100dfc00d2e2000052410000419900002ebc0000dc
:100e0c0044b60000dd7e0000e4f90000ba88000062
:100e1c008ba600001989000042160000094c000046
:100e2c00b6b60000f293000062850000a3da000061
:100e3c003ef200005af70000c503000060440000b9
:100e4c00fc2700000fae0000228f00007a3a000051
:100e5c00ed5e000056360000861100008d4f00003c
:100e6c00ada50000cce40000b2180000031900008e
:100e7c003ba100000813000001010000010100006b
:100e8c000000000000000000f683000000100000cd
:100e9c000300000000f0000000c50000c5c5000004
:100eac00c5c50000c5c50000c5c50000c5c500000e
:100ebc00c5c50000c5c50000c5000000000000004d
:100ecc000000000000000000000000000000000016
:100edc000000000000000000000000000000000006
:100eec0000000000000000000000000000000000f6
:100efc0000000000000000000000000000000000e6
:100f0c0000000000000000000000000000000000d5
:100f1c00000000000000000000000000494e00002e
:100f2c00545f0000435400004c5f0000454e00002d
:100f3c00414200004c4500003a20000000490000ee
:100f4c004e5400005f430000544c00005f50000002
:100f5c00485f0000454e0000414200004c45000037
:100f6c003a200000004900004e5400005f4300008e
:100f7c00544c00005f4d00004f440000454d0000f4
:100f8c005f4500004e410000424c0000453a000015
:100f9c0020000000494e0000545f00004354000044
:100fac004c5f000043480000495000005f450000c2
:100fbc004e410000424c0000453a00002000000069
:100fcc0046520000525f0000435400004c5f00008a
:100fdc00415f00004d4f0000444500003a200000e6
:100fec0000460000525200005f430000544c0000c9
:100ffc005f4200005f4d00004f440000453a000086
:10100c002000000046520000525f000043540000d4
:10101c004c5f0000435f00004d4f00004445000052
:10102c003a20000000460000525200005f430000ce
:10103c00544c00005f4400005f4d00004f44000022
:10104c00453a000020000000455a0000434f0000c4
:10105c004e460000494700005f5800004f5f0000fb
:10106c00545500004e4500003a200000005200008c
:10107c00585f000046490000464f00005f430000e7
:10108c004f5500004e5400003a2000000054000060
:10109c00585f000046490000464f00005f530000b7
:1010ac0050410000434500003a200000004300007e
:1010bc0055520000525f0000535400004154000090
:1010cc00453a000020000000435500005252000039
:1010dc00454e0000545f000043480000414e0000a4
:1010ec004e4500004c3a00002000000075610000e5
:1010fc0072740000206900006e69000074690000c1
:10110c00616c0000697a0000656400000034000026
:10111c003435000035200000696e00006974000051
:10112c00696100006c6900007a65000064000000d1
:10113c00756100007274000020620000756600008a
:04114c003a00000065
:020000040000fa
:101150000200fa002a06070000c0eb00004f7800ea
:10116000010037001e4fe9001e4078000004e00037
:10117000fcff3a002606070000c0eb00004f780095
:10118000010037001e4fe9001e4078000004e00017
:10119000fcff3a00270507000080fa000000060067
:1011a0000600fa00004f78001147980012079800d7
:1011b0002307980020c0b30096e8b7001e417800ce
:1011c00071892000824878001e41900081892000aa
:1011d000824878001e009000ae0090004808de00b3
:1011e0000040780099e8b7001e009000ae00900023
:1011f0004008de00004078009ae8b7001e0090002a
:10120000ae0090004809dd004800de0000007100db
:10121000c808de00004078009be8b7001e00900080
:10122000004078009ce8b7006189200070c0b300de
:10123000af0407000080fa00000006000600fa0074
:1012400020079800500037002e0090009040780052
:10125000114798002e0090000000e8002007980039
:101260001e409000f04f50001b0036002e009000f2
:101270009040780060c6b30080cf500014003a0060
:101280009e40900000c8b30080cf5000020036009e
:1012900040c0b300410037002e0090000000e8007d
:1012a000200798001e4090000040e900ae0090002a
:1012b0003c0007001e4090000080fb000000e90099
:1012c000ae00900000804000200798002e003700fc
:1012d00040c0b300310037000040eb00004f780001
:1012e0000a0037001e81fb002e009000904078001d
:1012f0006089200000004100014878002e00900025
:101300000000e800200798001e4fe8001e409000f3
:101310009e40780080cf5000f2ff39000e80e80038
:101320008001780012c0b300618920001e40900047
:10133000b3040700e14f40000200320020c0b300b8
:101340001600370096c8bf00f94f500005003a005c
:101350002e4090000004e0000200320040c0b300c4
:101360000e003700b60507000004e00006003a0052
:101370000041eb008040eb000040eb006100070003
:1013800040c0b300050037002e00900010407800e8
:101390000004e000acff3a000040eb000080fa00df
:1013a000000006000400fa00004f780011079800c2
:1013b0009e0190001e41780011c0b30060c6b300ca
:1013c000720407000080fa00000006000200fa0024
:1013d000000f78009205070090c1b3009e0507003a
:1013e0001e0078004800de00004078009a050700e3
:1013f0001e00780000407800970507008c05070064
:101400006189200010c0b3000e0407000080fa00bc
:10141000000006000400fa00004f78001147980011
:101420001207980010c3b30096e8b7001e41780079
:1014300071892000824878001e4190008189200037
:10144000824878001e0090004800de0000407800ce
:1014500099e8b7001e009000004078009ae8b700b5
:101460006189200050c0b300210407000080fa0009
:10147000000006000800fa00004f780011479800ad
:101480001207980043479800544798006547980012
:1014900020c3b30096e8b7001e4178007189200090
:1014a000824878001e41900081892000824878009f
:1014b0001e0090004800de000040780099e8b70068
:1014c0001e009000004078009ae8b7004e4190005e
:1014d000b1892000824878005e419000c1892000d7
:1014e000824878006e419000d189200082487800bf
:1014f0006189200080c0b300fd0307000080fa006e
:10150000000006000400fa00004f78001147980020
:101510002247980000c2b30096e8b7001e41780049
:1015200071892000824878001e4190008189200046
:10153000824878002e4190009189200082487800ee
:101540006389200082c0b3006189200040c0b300dd
:101550002b04070096c8bf0086e8b70097c8bf00f5
:1015600087e8b70098c8bf0088e8b70099c8bf00ef
:1015700089e8b7009ac8bf008ae8b7009bc8bf00d7
:101580008be8b7009cc8bf008ce8b7009dc8bf00bf
:101590008de8b7000080fa00000006000800fa009d
:1015a000004f780011479800224798003347980071
:1015b00044479800554798006647980030c1b300eb
:1015c00096e8b7001e4178007189200082487800b3
:1015d0001e41900081892000824878002e419000b1
:1015e00091892000824878003e419000a189200026
:1015f000824878004e419000b189200082487800ee
:101600005e419000c1892000824878006e419000c0
:10161000d1892000824878006389200072c0b3001d
:101620006189200080c0b300f503070096c8bf00a1
:1016300086e8b70097c8bf0087e8b70098c8bf0022
:1016400088e8b70099c8bf0089e8b7009ac8bf000a
:101650008ae8b7009bc8bf008be8b7009cc8bf00f2
:101660008ce8b7000080fa00000006000200fa00d3
:10167000004f780040c3b30096e8b7001e417800e1
:1016800071892000824878006189200020c0b30061
:10169000970307000080fa00000006000000fa002f
:1016a0009668ef006189200010c0b3009003070026
:1016b0000080fa00000006000200fa00004f7800e7
:1016c00050c1b30096e8b7001e4178007189200030
:1016d000824878006389200022c0b300618920001d
:1016e00020c0b300c603070096c8bf0086e8b70055
:1016f00097c8bf0087e8b7000080fa000000060026
:101700000000fa0010c0b30096e8b700638920001b
:1017100092c0b3006189200010c0b300b803070075
:1017200096c8bf0086e8b70097c8bf000080fb00de
:10173000c800dd0098c8bf000080fb0001007000f9
:101740004044880099c8bf008ae8b7009ac8bf0023
:101750000080fb00c800dd009bc8bf000080fb00cc
:1017600001007000604488009cc8bf008ee8b7008c
:101770009dc8bf008fe8b7009ec8bf0090e8b700c3
:101780000080fa00000006000400fa00004f780014
:10179000110798009e0190001e4178008040eb00e8
:1017a00060c6b300790307000080fa00000006005d
:1017b0000400fa00004f7800110798009e01900085
:1017c0001e4178008040eb0070c7b300580307004b
:1017d0000080fa00000006000400fa00004f7800c4
:1017e000114798002247980020c1b30096e8b7003f
:1017f0001e41780071892000824878001e419000c7
:1018000081892000824878002e4190009189200033
:101810008248780098c8bf006389200000417800a2
:101820006189200040c0b3007503070096c8bf005f
:1018300086e8b70097c8bf0087e8b70098c8bf0020
:1018400088e8b70099c8bf0089e8b7009ac8bf0008
:101850008ae8b7009bc8bf008be8b7009cc8bf00f0
:101860008ce8b7009dc8bf008de8b7009ec8bf00d8
:101870008ee8b7009fc8bf008fe8b700a0c8bf00c0
:1018800090e8b700a1c8bf0091e8b700a2c8bf00a8
:1018900092e8b700a3c8bf0093e8b700a4c8bf0090
:1018a00094e8b700a5c8bf0095e8b7000080fa002b
:1018b000000006000000fa0000c1b30096e8b7007f
:1018c00063892000b2c0b3006189200010c0b3005a
:1018d0004b03070096c8bf0086e8b70097c8bf0053
:1018e00087e8b70098c8bf0088e8b70099c8bf006c
:1018f0000080fb00c800dd009ac8bf000080fb002c
:1019000001007000504488009bc8bf008ce8b700fd
:101910009cc8bf008de8b7009dc8bf000080fb00d9
:101920008000eb00c801dd00020020009ec8bf005f
:101930000080fb008000eb00c000dd000000200004
:1019400000017100818171009fc8bf000082fb000f
:101950008002eb004828dd00c820de008100700016
:101960004820dd000001710081817100a0c8bf0026
:101970000080fb008000eb0000007100818071009e
:1019800070448800814488000080fa00000006004e
:101990000200fa00004f7800638920001e417800a1
:1019a0008040eb0000c5b300e102070096c8bf000d
:1019b00086e8b70097c8bf0087e8b70098c8bf009f
:1019c00088e8b70099c8bf0089e8b7000080fa002e
:1019d000000006000200fa00004f78006389200032
:1019e0001e4178008040eb0010c5b300d002070014
:1019f00096c8bf0086e8b70097c8bf0087e8b70061
:101a000098c8bf0088e8b70099c8bf0089e8b70048
:101a10000080fa00000006000200fa00004f780083
:101a2000638920001e4178008040eb0030c5b30080
:101a3000bf02070096c8bf0086e8b70097c8bf007e
:101a400087e8b70098c8bf0088e8b70099c8bf000a
:101a500089e8b7000080fa00000006000200fa00e2
:101a6000004f7800638920001e4178008040eb0021
:101a700070c5b300ae02070096c8bf0086e8b70085
:101a800097c8bf0087e8b70098c8bf0088e8b700cc
:101a900099c8bf0089e8b7000080fa00000006007e
:101aa0000000fa0030c3b30096e8b7006389200055
:101ab00022c0b3006189200010c0b300d00207002b
:101ac00096c8bf0086e8b70097c8bf0087e8b70090
:101ad0000080fa00000006000000fa0040c4b300d5
:101ae00096e8b7006389200002c1b3006189200035
:101af00010c0b300c202070096c8bf0086e8b70056
:101b000097c8bf0087e8b70098c8bf0088e8b7004b
:101b100099c8bf0089e8b7009ac8bf008ae8b70033
:101b20009bc8bf008be8b7009cc8bf008ce8b7001b
:101b30009dc8bf008de8b7009ec8bf008ee8b70003
:101b40009fc8bf008fe8b700a0c8bf0090e8b700eb
:101b5000a1c8bf0091e8b700a2c8bf0092e8b700d3
:101b6000a3c8bf0093e8b700a4c8bf0094e8b700bb
:101b7000a5c8bf0095e8b7000080fa000000060085
:101b80000200fa00004f78001147980040c1b300ee
:101b900096e8b7001e4178007189200082487800dd
:101ba0001e419000818920008248780063892000ce
:101bb00082c0b3006189200030c0b30090020700ea
:101bc00096c8bf000080fb00c800dd0097c8bf00ba
:101bd0000080fb00010070003044880098c8bf00fe
:101be0000080fb00c800dd0099c8bf000080fb003a
:101bf00001007000404488009ac8bf000080fb00cc
:101c0000c800dd009bc8bf000080fb000100700021
:101c1000504488009cc8bf008ce8b7009dc8bf0036
:101c20008de8b7000080fa00000006000200fa000c
:101c3000004f780010c2b30096e8b7001e4178004c
:101c400071892000824878006389200022c0b30097
:101c50006189200020c0b3006902070096c8bf0058
:101c600086e8b70097c8bf0087e8b7000080fa0091
:101c7000000006000200fa00004f780020c2b30006
:101c800096e8b7001e4178007189200082487800ec
:101c90006389200082c0b3006189200020c0b300a6
:101ca0005702070096c8bf0086e8b70097c8bf0074
:101cb00087e8b70098c8bf0088e8b70099c8bf0098
:101cc00089e8b7009ac8bf008ae8b7009bc8bf0080
:101cd0008be8b7009cc8bf000080fb00c800dd0097
:101ce0009dc8bf000080fb000100700060448800b8
:101cf0000080fa00000006000200fa00004f7800a1
:101d000030c2b30096e8b7001e4178007189200008
:101d1000824878006389200032c0b30061892000c6
:101d200020c0b3003602070096c8bf0086e8b7009f
:101d300097c8bf0087e8b70098c8bf0088e8b70019
:101d40000080fa00000006000600fa00004f78004c
:101d500011079800220798001e80fb004400de0057
:101d6000804078001e80fb004400de0000407800c8
:101d7000e94f500002003e0000c3b30001003700ed
:101d800070c3b30080c040001e009000014878007e
:101d90001e417800ef4061001e80fb006f00600074
:101da000e90f500002003c0000c3b30001003700ff
:101db00070c3b30080c040002e009000014878003e
:101dc0000080fa00000006000000fa000041eb006d
:101dd00041c0b30010c0b3007ffe070040062000e2
:101de0003f03070096c8bf00728a2000618a200066
:101df000d5ff070040792800010120009c02070060
:101e0000a6c8bf0088020700a7c8bf008602070057
:101e100080c4b3008402070040062000300307009e
:101e200097c8bf00728a2000618a2000c6ff0700a1
:101e3000507a2800310120008d020700a6c8bf009b
:101e400079020700a7c8bf007702070080c4b3006b
:101e500075020700400620002103070098c8bf0054
:101e6000728a2000618a2000b7ff0700907b28005b
:101e7000610120007e020700a6c8bf006a020700b9
:101e8000a7c8bf006802070080c4b300660207004d
:101e9000400620001203070099c8bf00728a200084
:101ea000618a2000a8ff0700007d28005101200062
:101eb0006f020700a6c8bf005b020700a7c8bf00eb
:101ec0005902070080c4b300570207000041eb002d
:101ed00041c0b30020c0b3003ffe07004006200011
:101ee000ff02070096c8bf00728a2000618a2000a6
:101ef00095ff0700607e2800010120005c020700ba
:101f0000a6c8bf0048020700a7c8bf0046020700d6
:101f100080c4b3004402070040062000f00207001e
:101f200097c8bf00728a2000618a200086ff0700e0
:101f3000707f2800010120004d020700a6c8bf00e5
:101f400039020700a7c8bf003702070080c4b300ea
:101f50003502070040062000e102070098c8bf00d4
:101f6000728a2000618a200077ff070080802800a5
:101f7000010120003e020700a6c8bf002a02070098
:101f8000a7c8bf002802070080c4b30026020700cc
:101f900040062000d202070099c8bf00728a2000c4
:101fa000618a200068ff070090812800010120005d
:101fb0002f020700a6c8bf001b020700a7c8bf006a
:101fc0001902070080c4b3001702070032c0b30033
:101fd00011c0b30040c2b300fffd0700400620005f
:101fe000bf02070096c8bf00728a2000618a2000e5
:101ff00055ff0700a0822800210120001c020700d5
:10200000a6c8bf0008020700a7c8bf000602070055
:1020100080c4b300040207000080fa00000006003c
:102020000000fa000040eb00a3fd0700400620007e
:10203000ab02070096c8bf00728a2000618a2000a8
:1020400041ff0700d0832800f100200008020700ac
:10205000a6c8bf00f4010700a7c8bf00f20107002f
:1020600080c4b300f0010700400620009c02070076
:1020700097c8bf00728a2000618a200032ff0700e3
:10208000d0842800f1002000f9010700a6c8bf0095
:10209000e5010700a7c8bf00e301070080c4b30043
:1020a000e10107000080fa00000006000000fa00cd
:1020b0007bfe0700400620008902070096c8bf008b
:1020c000728a2000618a20001fff0700d085280047
:1020d000c1002000e6010700a6c8bf00d20107002a
:1020e000a7c8bf00d001070080c4b300ce0107001d
:1020f000400620007a02070097c8bf00728a2000bd
:10210000618a200010ff0700a0862800110120002e
:10211000d7010700a6c8bf00c3010700a7c8bf00ba
:10212000c101070080c4b300bf0107000080fa00ae
:10213000000006000200fa000000eb00000f78002b
:1021400003fc0700010037001e0fe8004045800037
:10215000300090009e0f5000fbff3e000080fa0010
:10216000000006000200fa00f2ff07000d00370031
:10217000f0ff2700000f7800000000001e0078002c
:1021800000f0a7000000ea000000ea004f00de00b7
:10219000004078001e0fe9000004e000f7ff3a005d
:1021a000e4ff0700404580001000780023fc070092
:1021b0000004e000eeff3a000041eb008040eb003d
:1021c0000040eb00cffc07000080fa000000060092
:1021d0000200fa00004f78000041eb008040eb0065
:1021e0000040eb00c7fc070020c0b30032fd070031
:1021f00085c0b30084c0b3008041eb000001eb0058
:102200008040eb001e4078009afc07000080fa0036
:10221000000006000400fa00004f78001107980043
:102220000041eb008040eb000040eb00b5fc0700f4
:1022300010c0b30020fd0700d074280010407800c3
:102240009e00900050fd0700d074280010407800d8
:102250000080fb000001780001c3b3001e4078003d
:102260006cfc07000080fa00000006000600fa007f
:10227000004f780011079800424798000041eb009a
:102280008040eb000040eb009efc070010c0b30054
:1022900009fd07009e0090004e4090003afd0700a7
:1022a0004e4090000080fb000001780001c3b300a5
:1022b0001e40780057fc07000080fa00000006006e
:1022c0000000fa0051168000000024000080600029
:1022d0000000e00016003a000041eb008040eb00f7
:1022e0000040eb0087fc070088c8bf000080fb00af
:1022f000700060000000e00006003200d07428008a
:10230000104078004184200029fd070010c0b30070
:102310000800370088c8bf000080fb00680060002c
:102320000000e0000200320020c0b300e2fc070021
:102330000040eb000080fa00000006000000fa00f8
:102340005116800000002400008060000000e000c2
:102350000c003a000041eb008040eb000040eb0035
:1023600068fc070088c8bf008080fb0000022000d6
:10237000008060000000e0000200320010c0b300e6
:10238000010037000040eb000080fa00000006006a
:102390000000fa0051168000000024000080600058
:1023a0000000e00024003a000041eb008040eb0018
:1023b0000040eb0053fc07008cc8bf000080fb000e
:1023c000680060000000e0000600320010c0b300aa
:1023d000a6fc070020c0b300b7fc070080c0b30014
:1023e000a2fc070088c8bf000080fb0070006000ee
:1023f0000000e000090032000040eb00aefc0700e6
:1024000086c8bf0041842000e9fc070086c8bf00e1
:1024100084e8b70010c0b3000800370088c8bf00c8
:102420000080fb00680060000000e0000200320055
:1024300020c0b300a0fc07000040eb000080fa00c1
:10244000000006000800fa00404798003107980095
:102450000040eb00004f7800007122001007980048
:10246000140037006e01070040c4b3007a01070072
:102470007f010700004f78001e407800e14f4000c8
:1024800008003a004e4090000004e00003003200d3
:10249000be0090004e4090008201070064010700da
:1024a00007003700620107001e0090000000e900ed
:1024b000100798001e0090000000e000e9ff3a00bd
:1024c0001e0090000000e00001003a00ffff37000e
:1024d0001e407800e14f400002003a0010c0b300f7
:1024e000aae8b7001e4078000080fa00000006004d
:1024f0000400fa00004f780011079800010037002f
:1025000039000700aac8bf000004e000fcff320049
:10251000430107009e0090001e407800590107000b
:1025200043010700aa68ef000080fa0000000600df
:102530000600fa00004f78001147980022479800e3
:10254000230798001e4090000004e00005003200c0
:102550000100370024000700aac8bf000004e00003
:10256000fcff32002e0107001e4078003a010700f0
:10257000ae0090002e4090004a0107002c01070099
:10258000aa68ef000080fa00000006000600fa00ca
:10259000004f7800114798002247980023079800c1
:1025a0001e4090000004e0000500320001003700ea
:1025b0000d000700aac8bf000004e000fcff3200c5
:1025c000170107001e40780023010700ae009000ad
:1025d0002e4090002b01070015010700aa68ef00ac
:1025e0000080fa00000006000000fa008000eb0006
:1025f0000040eb0093ff07000080fa000000060097
:102600000800fa00004f7800110798004247980030
:10261000330798009e0090001e407800b4ff07002a
:10262000be0090004e40900086ff07000080fa0038
:10263000000006000000fa00aa68ef000080fa001f
:10264000000006000000fa00c9e2a900cde2a800df
:10265000c022a900c422a800c9a2a900c942a8009a
:10266000c962a900c9c2a80042a2a8001112800034
:1026700030fe2f00008060008001b300101288003f
:1026800011128000c0ff2f00008060000010a00029
:102690001012880042c2a9004302a8004342a900c8
:1026a00040c2a9008540a90041e2a8000080fa00cc
:1026b000000006000200fa00004f78001e80fb00b8
:1026c000401288000000000021048000004020002b
:1026d000008060000000e000fbff32008540a900a0
:1026e00040128000004078000080fa0000000600e0
:1026f0000600fa001007980041479800cde2a900b3
:102700000040eb00004f7800060037001e80fb0001
:102710009e0090000080400010407800e5ff070018
:102720001e4fe8004e4090009e40780080cf500041
:10273000f6ff3900cde2a8000080fa000000060094
:102740000600fa00881f780010079800414798009b
:10275000cde2a9000040eb00004f780007003700f1
:102760001e80fb009e0090000084400000c0eb0033
:10277000d0ff0700004c78001e4fe8004e4090004c
:102780009e40780080cf5000f5ff3900cde2a800d0
:102790004f0478000080fa00000006000000fa00f4
:1027a000c842a800c8e2a9000111800090ff2f00d4
:1027b00000806000001188002002a9002062a800ab
:1027c00070062000401188005105800080ff2f0016
:1027d000008060000020a0005005880041058000b6
:1027e000f0ff28000080600000e0a00040058800a5
:1027f0009580a9009560a80021e2a8002342a800c6
:102800000000000011118000002020000080600006
:102810000000e000fbff3a00400520002011880086
:102820000080fa00000006000200fa00004f780065
:1028300000000000111180000020200000806000d6
:102840000000e000fbff3a001e80fb002011880022
:1028500000000000111180000010200000806000c6
:102860000000e000fbff32000080fa0000000600dc
:102870000600fa0010079800210798000000eb00fe
:10288000000f78000c0037000000000011118000dc
:1028900000202000008060000000e000fbff3a0004
:1028a0001e0090001e004000104078000080fb00d9
:1028b000201188001e0fe8002e0090009e00780076
:1028c000808f5000f0ff39000000000011118000df
:1028d00000102000008060000000e000fbff3200dc
:1028e0000080fa00000006000000fa0075000700f2
:1028f000bd0007009000070052ff0700a7ff070078
:10290000c087280001012000d9ff070015fe07003d
:1029100040458000204090002dfe0700d088280010
:1029200001012000d2ff07004106200030002000f6
:10293000860007000200070017000700fdff3700b0
:102940000000fa0042c8bf000004e000100032009e
:10295000e089280091002000c5ff070040c8bf00a3
:102960000080fb008000780000802000c0ff07008e
:1029700040c8bf000080fb00000178008000eb0031
:10298000008020002ff707004068ef004268ef004a
:102990000080fa00000006000000fa007cfe07003c
:1029a000e14f500014003a0040458000004890007c
:1029b0000080fb000000e00003003200e10f500047
:1029c000070032000c00370084c8bf000080fb0005
:1029d0008000780040842000a5ff07000600370033
:1029e00084c8bf000080fb00800078004084200085
:1029f0009fff0700000000000080fa0000000600b2
:102a00000000fa00c422a8000080fa0000000600be
:102a10000000fa00c422a9000080fa0000000600ad
:102a20000000fa00cde2a9000080fa0000000600d4
:102a30000000fa00cde2a8000080fa0000000600c5
:102a40000000fa00501680004e00de006140600079
:102a50000080fa00000006000200fa00004f780033
:102a60001e40780013ff07000080fa0000000600f7
:102a70000000fa0000c0eb000eff07000080fa0023
:102a8000000006000400fa00004f780011079800cb
:102a90009e4078001e00900015ff07000080fa009d
:102aa000000006000400fa00004f780011079800ab
:102ab0009e4078001e00900021ff07000080fa0071
:102ac000000006000000fa00213a8000f08f2f007d
:102ad00000806000203a88000080fa0000000600b4
:102ae0000600fa00200798000000eb00000f7800b5
:102af0000b0037000000eb001007980003003700c0
:102b00001e0090000000e800100798009e00900052
:102b10002e009000808f5000f9ff39001e0fe80052
:102b2000703e20009e007800808f5000f1ff36003c
:102b30000080fa00000006000000fa00c982a90027
:102b4000cd82a9000080fa00000006000600fa000d
:102b500010079800210798000000eb00000f780094
:102b600007003700cd82a8002e009000dcff070090
:102b7000cd82a9002e009000d9ff07001e0fe800ab
:102b80001e0090009e007800808f5000f5ff3900f5
:082b90000080fa0000000600bd
:020000040000fa
:102b9800a60800000200000000000000a8080000cd
:102ba80002000000020000004a87000044080000fc
:102bb8004200000000000000aa0800000200000017
:102bc800000000008608000020000000000000004f
:102bd80000080000440000000000000000000000a1
:020000040000fa
:102be8000000fa000080eb00601988000080fa00fd
:042bf80000000600d3
:020000040000fa
:0200000401f009
:04000c008700000069
:020000040000fa
:0200000401f009
:04001000fb000000f1
:00000001FF
