:020000040000fa
:080000000002040000000000f2
:020000040000fa
:040008001c030000d5
:020000040000fa
:04000c001c030000d1
:020000040000fa
:040010001c030000cd
:020000040000fa
:040014001c030000c9
:020000040000fa
:040018001c030000c5
:020000040000fa
:04001c001c030000c1
:020000040000fa
:040020001c030000bd
:020000040000fa
:040024001c030000b9
:020000040000fa
:040028001c030000b5
:020000040000fa
:04002c001c030000b1
:020000040000fa
:040030001c030000ad
:020000040000fa
:040034001c030000a9
:020000040000fa
:040038001c030000a5
:020000040000fa
:04003c001c030000a1
:020000040000fa
:040040001c0300009d
:020000040000fa
:040044001c03000099
:020000040000fa
:040048001c03000095
:020000040000fa
:04004c001c03000091
:020000040000fa
:040050001c0300008d
:020000040000fa
:04005400c8020000de
:020000040000fa
:040058001c03000085
:020000040000fa
:04005c001c03000081
:020000040000fa
:040060001c0300007d
:020000040000fa
:040064001c03000079
:020000040000fa
:040068001c03000075
:020000040000fa
:04006c001c03000071
:020000040000fa
:040070001c0300006d
:020000040000fa
:040074001c03000069
:020000040000fa
:040078001c03000065
:020000040000fa
:04007c001c03000061
:020000040000fa
:040080001c0300005d
:020000040000fa
:040084001c03000059
:020000040000fa
:040088001c03000055
:020000040000fa
:04008c001c03000051
:020000040000fa
:040090001c0300004d
:020000040000fa
:040094001c03000049
:020000040000fa
:040098001c03000045
:020000040000fa
:04009c001c03000041
:020000040000fa
:0400a0001c0300003d
:020000040000fa
:0400a4001c03000039
:020000040000fa
:0400a8001c03000035
:020000040000fa
:0400ac001c03000031
:020000040000fa
:0400b0001c0300002d
:020000040000fa
:0400b4001c03000029
:020000040000fa
:0400b8001c03000025
:020000040000fa
:0400bc001c03000021
:020000040000fa
:0400c0001c0300001d
:020000040000fa
:0400c4001c03000019
:020000040000fa
:0400c8001c03000015
:020000040000fa
:0400cc001c03000011
:020000040000fa
:0400d0001c0300000d
:020000040000fa
:0400d4001c03000009
:020000040000fa
:0400d8001c03000005
:020000040000fa
:0400dc001c03000001
:020000040000fa
:0400e0001c030000fd
:020000040000fa
:0400e4001c030000f9
:020000040000fa
:0400e8001c030000f5
:020000040000fa
:0400ec001c030000f1
:020000040000fa
:0400f0001c030000ed
:020000040000fa
:0400f4001c030000e9
:020000040000fa
:0400f8001c030000e5
:020000040000fa
:0400fc001c030000e1
:020000040000fa
:040100001c030000dc
:020000040000fa
:040104001c030000d8
:020000040000fa
:040108001c030000d4
:020000040000fa
:04010c001c030000d0
:020000040000fa
:040110001c030000cc
:020000040000fa
:040114001c030000c8
:020000040000fa
:040118001c030000c4
:020000040000fa
:04011c001c030000c0
:020000040000fa
:040120001c030000bc
:020000040000fa
:040124001c030000b8
:020000040000fa
:040128001c030000b4
:020000040000fa
:04012c001c030000b0
:020000040000fa
:040130001c030000ac
:020000040000fa
:040134001c030000a8
:020000040000fa
:040138001c030000a4
:020000040000fa
:04013c001c030000a0
:020000040000fa
:040140001c0300009c
:020000040000fa
:040144001c03000098
:020000040000fa
:040148001c03000094
:020000040000fa
:04014c001c03000090
:020000040000fa
:040150001c0300008c
:020000040000fa
:040154001c03000088
:020000040000fa
:040158001c03000084
:020000040000fa
:04015c001c03000080
:020000040000fa
:040208001c030000d3
:020000040000fa
:04020c001c030000cf
:020000040000fa
:040210001c030000cb
:020000040000fa
:040214001c030000c7
:020000040000fa
:040218001c030000c3
:020000040000fa
:04021c001c030000bf
:020000040000fa
:040220001c030000bb
:020000040000fa
:040224001c030000b7
:020000040000fa
:040228001c030000b3
:020000040000fa
:04022c001c030000af
:020000040000fa
:040230001c030000ab
:020000040000fa
:040234001c030000a7
:020000040000fa
:040238001c030000a3
:020000040000fa
:04023c001c0300009f
:020000040000fa
:040240001c0300009b
:020000040000fa
:040244001c03000097
:020000040000fa
:040248001c03000093
:020000040000fa
:04024c001c0300008f
:020000040000fa
:040250001c0300008b
:020000040000fa
:04025400c8020000dc
:020000040000fa
:040258001c03000083
:020000040000fa
:04025c001c0300007f
:020000040000fa
:040260001c0300007b
:020000040000fa
:040264001c03000077
:020000040000fa
:040268001c03000073
:020000040000fa
:04026c001c0300006f
:020000040000fa
:040270001c0300006b
:020000040000fa
:040274001c03000067
:020000040000fa
:040278001c03000063
:020000040000fa
:04027c001c0300005f
:020000040000fa
:040280001c0300005b
:020000040000fa
:040284001c03000057
:020000040000fa
:040288001c03000053
:020000040000fa
:04028c001c0300004f
:020000040000fa
:040290001c0300004b
:020000040000fa
:040294001c03000047
:020000040000fa
:040298001c03000043
:020000040000fa
:04029c001c0300003f
:020000040000fa
:0402a0001c0300003b
:020000040000fa
:0402a4001c03000037
:020000040000fa
:0402a8001c03000033
:020000040000fa
:0402ac001c0300002f
:020000040000fa
:0402b0001c0300002b
:020000040000fa
:0402b4001c03000027
:020000040000fa
:0402b8001c03000023
:020000040000fa
:0402bc001c0300001f
:020000040000fa
:0402c0001c0300001b
:020000040000fa
:0402c4001c03000017
:020000040000fa
:0402c8001c03000013
:020000040000fa
:0402cc001c0300000f
:020000040000fa
:0402d0001c0300000b
:020000040000fa
:0402d4001c03000007
:020000040000fa
:0402d8001c03000003
:020000040000fa
:0402dc001c030000ff
:020000040000fa
:0402e0001c030000fb
:020000040000fa
:0402e4001c030000f7
:020000040000fa
:0402e8001c030000f3
:020000040000fa
:0402ec001c030000ef
:020000040000fa
:0402f0001c030000eb
:020000040000fa
:0402f4001c030000e7
:020000040000fa
:0402f8001c030000e3
:020000040000fa
:0402fc001c030000df
:020000040000fa
:040300001c030000da
:020000040000fa
:040304001c030000d6
:020000040000fa
:040308001c030000d2
:020000040000fa
:04030c001c030000ce
:020000040000fa
:040310001c030000ca
:020000040000fa
:040314001c030000c6
:020000040000fa
:040318001c030000c2
:020000040000fa
:04031c001c030000be
:020000040000fa
:040320001c030000ba
:020000040000fa
:040324001c030000b6
:020000040000fa
:040328001c030000b2
:020000040000fa
:04032c001c030000ae
:020000040000fa
:040330001c030000aa
:020000040000fa
:040334001c030000a6
:020000040000fa
:040338001c030000a2
:020000040000fa
:04033c001c0300009e
:020000040000fa
:040340001c0300009a
:020000040000fa
:040344001c03000096
:020000040000fa
:040348001c03000092
:020000040000fa
:04034c001c0300008e
:020000040000fa
:040350001c0300008a
:020000040000fa
:040354001c03000086
:020000040000fa
:040358001c03000082
:020000040000fa
:04035c001c0300007e
:020000040000fa
:10040000cf8a20000edf20000e01880000000000cf
:10041000000020000000e000020032000001200087
:100420002002880014000700850007000000e0009b
:1004300003003a00a0602100010020000200370004
:100440000000200001002000810f70000100320038
:1004500014000700000020000000e000020032004d
:100460000000020000000000ec1302000000000089
:100470000040da000000fe004440a900604c20006b
:100480000000e0000300320000002000a00188000e
:100490004440a800000006008a1f78008b1f7800e7
:1004a0000000060091018800800478000000eb0045
:1004b0001a003700e284440032a0b4009905ba0063
:1004c000e284440032a0b4009906ba00e2844400f9
:1004d00032a0b4000006eb00476fde00fd07b2005b
:1004e000636ce10003003a00ebff07000000eb0043
:1004f0000a003700606ce10004003a00005deb0088
:100500008b05e900fdff3e00040037006168e10053
:10051000010032000086eb000b00070019c7ba008b
:100520001905ba000e04e00003003a000a00e000da
:10053000e0ff3a0000000600fe07b2009e018800be
:100540008a047800f5ff3700395dba008b05e900b1
:100550000c003200295dba008b05e900080032006a
:100560000c00e00003003a00e284440032a0b40032
:10057000f5ff370019ddba008b05e900faff3a00f4
:100580008904e800e184440032a0b40000000600c1
:10059000809fbe00829fbe000000fa008560a90017
:1005a00010118000610060000000e0001e003200b9
:1005b000301180000040780041e8b700118420002d
:1005c00091407800b0c3b30080cf500005003200e6
:1005d0000184200091407800f0c3b30080cf500028
:1005e0000300360010c0b30042e8b7000e00370029
:1005f0000184200091407800f0c3b30080cf500008
:1006000009003e0040c8bf008081fb00128420002a
:1006100012417800018020008180410082487800ea
:100620000040e80040e8b7000080fa004f01be003b
:100630004f00be00004006000040da000000fe004f
:10064000000005008001780002003700b1597800f1
:100650000201e9000200e000fcff3a000000060091
:10066000889fbe008a9fbe00800478000200e000e0
:100670005b00320001407800814c780082814400a8
:10068000f1f99f00e20f51005500360091449800a7
:10069000a1449800e1f99f00d1f99f00e60f5100b5
:1006a0004f003600b1449800c1f99f00e80f510097
:1006b0004b0036000905ea00630565000a84440022
:1006c0000a055100c1ff2f00010565000080fb00f5
:1006d0008000eb00121020001310200044000700df
:1006e000008cbe000a01440060b99f0071b99f00f0
:1006f000e80f55003a0036002004980031049800b5
:10070000400498005104980020b99f0031b99f001f
:1007100040b99f0051b99f00f80f550030003600d6
:100720006004980071049800000c9800110c980067
:10073000200c9800310c9800400c9800510c980047
:1007400020b19f0031b19f0040b19f0051b19f0087
:1007500060b19f0071b19f0000b99f0011b99f0067
:100760006401640078014100020444000205550060
:100770006011b8000203be000002be000403be0008
:100780006022b800000072008180720002017300d4
:100790008381730010003700009cbe000294be00ed
:1007a0004004980051049800620498007304980073
:1007b000000c9800110c9800220c9800330c980043
:1007c000400c9800510c9800620c9800730c980033
:1007d0000a02b1000802b000ff0f5500eeff3e0014
:1007e000090078004f05be004f04be00000006005f
:1007f000020ab900001bb9000200b80081004200e3
:08080000810043000000060026
:020000040000fa
:1008080008040000217100004b00000000dc00001b
:100818009508000005a6000022210000f041000014
:100828005b26000008e200002f1c0000bb0a000045
:10083800a8940000280800000587000067e200006f
:10084800581a0000075b000008e10000d0720000a1
:10085800d88a0000b85b00007d0800000511000080
:10086800ec9e0000282300001b6d000008e2000039
:100878004f8a0000b2a900002914000013080000e4
:1008880005d100002e7100006a5100004c2c0000b8
:1008980008e500008027000042a4000069b00000bd
:1008a8007f08000005aa0000812a0000bd4500005d
:1008b800e8a8000008ea0000e4f0000024c90000ed
:1008c8009fcc00003c08000005080000f50500006a
:1008d800042700006298000008ea00006b6200002c
:1008e80084a10000f94a0000e208000005e90000c0
:1008f800770500004f840000ee35000008e2000094
:1009080043c300008dfb0000ad5400002508000023
:1009180005140000065e0000393600002f4500006f
:1009280008ea00000c1c000074d0000011fc000054
:100938003208000005da000038ba00000e3c00005a
:10094800e78b000008ea0000b0090000e6ff00009d
:1009580094bb0000a908000005d700001129000079
:10096800fedc000071d5000008ea00007f8300006b
:10097800a7600000906200001808000005840000cd
:100988007f6a0000d1910000c652000008ea00000a
:100998002ad800007b8e00004a9f000091080000c2
:1009a80005bd0000aa9d00001618000006150000ed
:1009b80008e2000055ad00002d0a0000141f0000d9
:1009c8005d08000005d30000e07c000039cf00007e
:1009d80001f0000008ef00003a910000726a000080
:1009e80003bb000096080000e78300006da4000028
:1009f80092fc000013a7000008ef0000f8fd0000bb
:100a0800cf620000076f00001e080000e74c0000de
:100a1800ea4a0000754f0000d6cf000008e2000047
:100a2800f6110000e42600000d4d0000c608000085
:100a380005fb0000bfe8000007890000c351000063
:100a480008ef000082270000043f000096a800007d
:100a580058080000e7410000293c0000752a000002
:100a6800031c000008ef0000af5900009836000092
:100a7800aa0f000006080000e6f6000093410000f7
:100a88002dec00000e99000008050000291900004f
:100a980090e50000aa36000040080000e7fb0000cf
:100aa800681000007d7700005dc0000008e70000c6
:100ab800cbb40000ddce000090540000be0800005a
:100ac800e77200008ad6000002f40000ddcc0000c6
:100ad80008e700006a2100000b02000086ec000015
:100ae80015080000e77b00007c3d00006b810000da
:100af80003d0000008ef00007d610000369400007c
:100b08007ca00000df080000efcc0000853b00005f
:100b1800dae000005c1c000008e70000e375000054
:100b2800bb390000224b0000a8080000eff90000c4
:100b3800cee000005eeb00001dcb000008e70000df
:100b4800bde2000070d50000ab4e00003f08000079
:100b5800e7b700008d200000686b00000952000014
:100b680008ef0000a11b000090cd000098000000d5
:100b780063080000ef540000675d00009c1100004e
:100b8800fc45000008e70000d49b0000c89700005f
:100b9800be8a000007080000ef5200008d90000098
:100ba80063730000d52a000008ef000003bc0000b2
:100bb8006e1c000076be00004a080000e7c2000074
:100bc800ed670000ba5e00006621000008ef000033
:100bd800e73f000087be0000e07a00006d080000d3
:100be800e7c90000709300001d640000f56c000068
:100bf80008ef0000f528000008340000b3b6000034
:100c08002c080000ef3a00000aec00000fdb00009f
:100c180056ca000008ef000039a000006eed000081
:100c280079d0000024080000e76c00000baf00003a
:100c3800a94e000040b5000008e90000b9af000067
:100c4800bf25000050d1000037080000059e0000b5
:100c5800dbde00003f940000e96b000008ec0000b8
:100c6800c5050000aa570000dc8a00005e080000e5
:100c780005700000da84000084dd0000ca900000de
:100c8800070200008100000001c90000c3800000c5
:100c98000611000001020000000100002008000009
:100ca800110200000400000008060000040a000009
:100cb80005110000240100000340000072660000d6
:100cc800ff0600008ab200006bef00001419000054
:100cd800dc9f0000a58800003d0e000071af0000f9
:100ce800355900004986000096a10000dc6b000021
:100cf80076ca0000a2c50000b2690000fc570000d7
:100d08000ac6000076030000695400006c17000052
:100d1800caa100004ccd000017340000811c00005f
:100d28008d680000f7cd0000fa7000005331000014
:100d3800dc9400001b670000f52b0000f8bf0000e2
:100d4800f3270000d06800009b2300009b3c0000b4
:100d580078930000d0660000b939000020f2000046
:100d6800ee4a0000fb0000009804000067eb00005a
:100d7800c2d30000bb9c000027500000fd0100000a
:100d880091610000af1400003290000039a2000009
:100d9800baa50000182c0000bff300008e6c0000fc
:100da8005a0100000070000066f50000a74f00001f
:100db8002c5e000058f80000ea9f000001100000b7
:100dc800e02c000092430000813500009a2a0000c0
:100dd80057ea0000aedd0000f2da0000b9ce0000ec
:100de800e5ea0000100d0000765d000094f00000b8
:100df8009b330000d8c900006d1600003078000051
:100e0800429d0000e3ad000065840000c287000039
:100e180066830000704f000079b600008921000049
:100e280007df0000f8780000fe1600005b0d0000e8
:100e3800053400008e300000738b00003e17000060
:100e48000175000010fe00009c4b0000d5ee00006c
:100e580064340000cbab0000bb640000ea9c0000d7
:100e6800e150000044dc0000cd6b0000bc580000dd
:100e7800ad3d0000a0fa000023d700001c5300007d
:100e880054860000ab0e000003190000ad8c000072
:100e9800081300000101000001010000000000002b
:100ea800000000000484000000100000030000009f
:100eb80000f00000c5c50000c5c50000c5c500009c
:100ec800c5c50000c5c50000c5c50000c5c50000f2
:100ed800c5c5000000000000000000000000000080
:100ee80000000000000000000000000000000000fa
:100ef80000000000000000000000000000000000ea
:100f080000000000000000000000000000000000d9
:100f180000000000000000000000000000000000c9
:100f280000000000000000000000000000000000b9
:100f380000000000494e0000545f000043540000c8
:100f48004c5f0000454e0000414200004c45000047
:100f58003a200000004900004e5400005f430000a2
:100f6800544c00005f500000485f0000454e0000f0
:100f7800414200004c4500003a20000000490000b2
:100f88004e5400005f430000544c00005f4d0000c9
:100f98004f440000454d00005f4500004e410000f1
:100fa800424c0000453a000020000000494e000075
:100fb800545f0000435400004c5f000043480000a9
:100fc800495000005f4500004e410000424c0000bf
:100fd800453a00002000000046520000525f000021
:100fe800435400004c5f0000415f00004d4f00007b
:100ff800444500003a20000000460000525200001c
:101008005f430000544c00005f4200005f4d000049
:101018004f440000453a00002000000046520000fe
:10102800525f0000435400004c5f0000435f000023
:101038004d4f0000444500003a20000000460000e3
:10104800525200005f430000544c00005f4400000f
:101058005f4d00004f440000453a000020000000aa
:10106800455a0000434f00004e4600004947000023
:101078005f5800004f5f0000545500004e450000c7
:101088003a20000000520000585f00004649000066
:10109800464f00005f4300004f5500004e540000cb
:1010a8003a20000000540000585f00004649000044
:1010b800464f00005f5300005041000043450000c8
:1010c8003a2000000043000055520000525f000023
:1010d8005354000041540000453a0000200000002d
:1010e8004355000052520000454e0000545f000076
:1010f80043480000414e00004e4500004c3a0000b5
:101108002000000075610000727400002069000072
:101118006e69000074690000616c0000697a000063
:1011280065640000003400003435000035200000fc
:10113800696e000069740000696100006c69000054
:101148007a6500006400000030310000323300008e
:10115800343500003637000038390000616200007d
:10116800636400006566000000750000617200009d
:101178007420000062750000663a000000730000e9
:0c118800656e0000643a000020000000ca
:020000040000fa
:101194000200fa003806070000c0eb00004f780098
:1011a400010037001e4fe9001e4078000004e000f3
:1011b400fcff3a003406070000c0eb00004f780043
:1011c400010037001e4fe9001e4078000004e000d3
:1011d400fcff3a00250507000080fa000000060025
:1011e4000600fa00004f7800114798001207980093
:1011f4002307980020c0b30094e8b7001e4178008c
:1012040051892000824878001e41900061892000a5
:10121400824878001e009000ae0090004808de006e
:101224000040780097e8b7001e009000ae009000e0
:101234004008de000040780098e8b7001e009000e7
:10124400ae0090004809dd004800de000000710097
:10125400c808de000040780099e8b7001e0090003e
:10126400004078009ae8b7004189200070c0b300bc
:10127400ad0407000080fa00000006000600fa0032
:1012840020079800500037002e009000904078000e
:10129400114798002e0090000000e80020079800f5
:1012a4001e409000f04f50001b0036002e009000ae
:1012b4009040780060c6b30080cf500014003a001c
:1012c4009e40900000c8b30080cf5000020036005a
:1012d40040c0b300410037002e0090000000e80039
:1012e400200798001e4090000040e900ae009000e6
:1012f4003c0007001e4090000080fb000000e90055
:10130400ae00900000804000200798002e003700b7
:1013140040c0b300310037000040eb00004f7800bc
:101324000a0037001e81fb002e00900090407800d8
:101334004089200000004100014878002e00900000
:101344000000e800200798001e4fe8001e409000af
:101354009e40780080cf5000f2ff39000e80e800f4
:101364008001780012c0b300418920001e40900023
:10137400b1040700e14f40000200320020c0b30076
:101384001600370094c8bf00f94f500005003a001a
:101394002e4090000004e0000200320040c0b30080
:1013a4000e003700c40507000004e00006003a0000
:1013b4000041eb008040eb000040eb0061000700bf
:1013c40040c0b300050037002e00900010407800a4
:1013d4000004e000acff3a000040eb000080fa009b
:1013e400000006000400fa00004f7800110798007e
:1013f4009e0190001e41780011c0b30060c6b30086
:10140400700407000080fa00000006000200fa00e1
:10141400000f7800a005070090c1b300ac050700d9
:101424001e0078004800de0000407800a805070090
:101434001e00780000407800a50507009a05070003
:101444004189200010c0b3000c0407000080fa009a
:10145400000006000400fa00004f780011479800cd
:101464001207980010c3b30094e8b7001e41780037
:1014740051892000824878001e4190006189200033
:10148400824878001e0090004800de00004078008a
:1014940097e8b7001e0090000040780098e8b70075
:1014a4004189200050c0b3001f0407000080fa00e7
:1014b400000006000800fa00004f78001147980069
:1014c40012079800434798005447980065479800ce
:1014d40020c3b30094e8b7001e417800518920006e
:1014e400824878001e41900061892000824878007b
:1014f4001e0090004800de000040780097e8b70026
:101504001e0090000040780098e8b7004e4190001b
:1015140091892000824878005e419000a1892000d2
:10152400824878006e419000b1892000824878009a
:101534004189200080c0b300fb0307000080fa004b
:10154400000006000400fa00004f780011479800dc
:101554002247980000c2b30094e8b7001e41780007
:1015640051892000824878001e4190006189200042
:10157400824878002e4190007189200082487800ca
:101584004389200082c0b3004189200040c0b300d9
:101594002904070094c8bf0084e8b70095c8bf00b9
:1015a40085e8b70096c8bf0086e8b70097c8bf00b3
:1015b40087e8b70098c8bf0088e8b70099c8bf009b
:1015c40089e8b7009ac8bf008ae8b7009bc8bf0083
:1015d4008be8b7000080fa00000006000800fa005b
:1015e400004f78001147980022479800334798002d
:1015f40044479800554798006647980030c1b300a7
:1016040094e8b7001e417800518920008248780090
:101614001e41900061892000824878002e4190008c
:1016240071892000824878003e4190008189200021
:10163400824878004e4190009189200082487800c9
:101644005e419000a1892000824878006e4190009c
:10165400b1892000824878004389200072c0b30019
:101664004189200080c0b300f303070094c8bf0081
:1016740084e8b70095c8bf0085e8b70096c8bf00e6
:1016840086e8b70097c8bf0087e8b70098c8bf00ce
:1016940088e8b70099c8bf0089e8b7009ac8bf00b6
:1016a4008ae8b7000080fa00000006000200fa0091
:1016b400004f780040c3b30094e8b7001e4178009f
:1016c40051892000824878004189200020c0b3005d
:1016d400950307000080fa00000006000000fa00ed
:1016e4009468ef004189200010c0b3008e03070006
:1016f4000080fa00000006000200fa00004f7800a3
:1017040050c1b30094e8b7001e417800518920000d
:10171400824878004389200022c0b3004189200018
:1017240020c0b300c403070094c8bf0084e8b70016
:1017340095c8bf0085e8b7000080fa0000000600e5
:101744000000fa0010c0b30094e8b70043892000f9
:1017540092c0b3004189200010c0b300b603070053
:1017640094c8bf0084e8b70095c8bf000080fb00a0
:10177400c800dd0096c8bf000080fb0001007000b7
:101784003044880097c8bf0088e8b70098c8bf00f5
:101794000080fb00c800dd0099c8bf000080fb008a
:1017a40001007000504488009ac8bf008ce8b7005c
:1017b4009bc8bf008de8b7009cc8bf008ee8b70087
:1017c4000080fa00000006000400fa00004f7800d0
:1017d400110798009e0190001e4178008040eb00a4
:1017e40060c6b300770307000080fa00000006001b
:1017f4000400fa00004f7800110798009e01900041
:101804001e4178008040eb0070c7b3005603070008
:101814000080fa00000006000400fa00004f78007f
:10182400114798002247980020c1b30094e8b700fc
:101834001e41780051892000824878001e419000a2
:1018440061892000824878002e419000718920002f
:101854008248780096c8bf00438920000041780080
:101864004189200040c0b3007303070094c8bf003f
:1018740084e8b70095c8bf0085e8b70096c8bf00e4
:1018840086e8b70097c8bf0087e8b70098c8bf00cc
:1018940088e8b70099c8bf0089e8b7009ac8bf00b4
:1018a4008ae8b7009bc8bf008be8b7009cc8bf009c
:1018b4008ce8b7009dc8bf008de8b7009ec8bf0084
:1018c4008ee8b7009fc8bf008fe8b700a0c8bf006c
:1018d40090e8b700a1c8bf0091e8b700a2c8bf0054
:1018e40092e8b700a3c8bf0093e8b7000080fa00ed
:1018f400000006000000fa0000c1b30094e8b7003d
:1019040043892000b2c0b3004189200010c0b30055
:101914004903070094c8bf0084e8b70095c8bf0016
:1019240085e8b70096c8bf0086e8b70097c8bf002f
:101934000080fb00c800dd0098c8bf000080fb00e9
:10194400010070004044880099c8bf008ae8b700cd
:101954009ac8bf008be8b7009bc8bf000080fb009b
:101964008000eb00c801dd00020020009cc8bf001d
:101974000080fb008000eb00c000dd0000002000c0
:1019840000017100818171009dc8bf000082fb00cd
:101994008002eb004828dd00c820de0081007000d2
:1019a4004820dd0000017100818171009ec8bf00e4
:1019b4000080fb008000eb0000007100818071005a
:1019c40060448800714488000080fa00000006002a
:1019d4000200fa00004f7800438920001e4178007d
:1019e4008040eb0000c5b300df02070094c8bf00cd
:1019f40084e8b70095c8bf0085e8b70096c8bf0063
:101a040086e8b70097c8bf0087e8b7000080fa00ef
:101a1400000006000200fa00004f7800438920000d
:101a24001e4178008040eb0010c5b300ce020700d1
:101a340094c8bf0084e8b70095c8bf0085e8b70024
:101a440096c8bf0086e8b70097c8bf0087e8b7000c
:101a54000080fa00000006000200fa00004f78003f
:101a6400438920001e4178008040eb0030c5b3005c
:101a7400bd02070094c8bf0084e8b70095c8bf0042
:101a840085e8b70096c8bf0086e8b70097c8bf00ce
:101a940087e8b7000080fa00000006000200fa00a0
:101aa400004f7800438920001e4178008040eb00fd
:101ab40070c5b300ac02070094c8bf0084e8b70047
:101ac40095c8bf0085e8b70096c8bf0086e8b70090
:101ad40097c8bf0087e8b7000080fa00000006003e
:101ae4000000fa0030c3b30094e8b7004389200033
:101af40022c0b3004189200010c0b300ce02070009
:101b040094c8bf0084e8b70095c8bf0085e8b70053
:101b14000080fa00000006000000fa0040c4b30090
:101b240094e8b7004389200002c1b3004189200032
:101b340010c0b300c002070094c8bf0084e8b70017
:101b440095c8bf0085e8b70096c8bf0086e8b7000f
:101b540097c8bf0087e8b70098c8bf0088e8b700f7
:101b640099c8bf0089e8b7009ac8bf008ae8b700df
:101b74009bc8bf008be8b7009cc8bf008ce8b700c7
:101b84009dc8bf008de8b7009ec8bf008ee8b700af
:101b94009fc8bf008fe8b700a0c8bf0090e8b70097
:101ba400a1c8bf0091e8b700a2c8bf0092e8b7007f
:101bb400a3c8bf0093e8b7000080fa000000060045
:101bc4000200fa00004f78001147980040c1b300aa
:101bd40094e8b7001e4178005189200082487800bb
:101be4001e419000618920008248780043892000ca
:101bf40082c0b3004189200030c0b3008e020700c8
:101c040094c8bf000080fb00c800dd0095c8bf0079
:101c14000080fb00010070002044880096c8bf00cb
:101c24000080fb00c800dd0097c8bf000080fb00f7
:101c3400010070003044880098c8bf000080fb0099
:101c4400c800dd0099c8bf000080fb0001007000df
:101c5400404488009ac8bf008ae8b7009bc8bf0008
:101c64008be8b7000080fa00000006000200fa00ca
:101c7400004f780010c2b30094e8b7001e4178000a
:101c840051892000824878004389200022c0b30093
:101c94004189200020c0b3006702070094c8bf0038
:101ca40084e8b70095c8bf0085e8b7000080fa0053
:101cb400000006000200fa00004f780020c2b300c2
:101cc40094e8b7001e4178005189200082487800ca
:101cd4004389200082c0b3004189200020c0b300a2
:101ce4005502070094c8bf0084e8b70095c8bf0038
:101cf40085e8b70096c8bf0086e8b70097c8bf005c
:101d040087e8b70098c8bf0088e8b70099c8bf0043
:101d140089e8b7009ac8bf000080fb00c800dd0056
:101d24009bc8bf000080fb00010070005044880085
:101d34000080fa00000006000200fa00004f78005c
:101d440030c2b30094e8b7001e41780051892000e6
:101d5400824878004389200032c0b30041892000c2
:101d640020c0b3003402070094c8bf0084e8b70061
:101d740095c8bf0085e8b70096c8bf0086e8b700dd
:101d84000080fa00000006000600fa00004f780008
:101d940011079800220798001e80fb004400de0013
:101da400804078001e80fb004400de000040780084
:101db400e94f500002003e0000c3b30001003700a9
:101dc40070c3b30080c040001e009000014878003a
:101dd4001e417800ef4061001e80fb006f00600030
:101de400e90f500002003c0000c3b30001003700bb
:101df40070c3b30080c040002e00900001487800fa
:101e04000080fa00000006000000fa000041eb0028
:101e140041c0b30010c0b3007ffe0700400620009d
:101e24004d03070094c8bf00528a2000418a200055
:101e3400d5ff0700e079280001012000f002070027
:101e4400a4c8bf00dc020700a5c8bf00da0207006f
:101e540080c4b300d8020700400620003e030700f8
:101e640095c8bf00528a2000418a2000c6ff07009f
:101e7400f07a280031012000e1020700a4c8bf0065
:101e8400cd020700a5c8bf00cb02070080c4b30081
:101e9400c9020700400620002f03070096c8bf00b0
:101ea400528a2000418a2000b7ff0700307c2800b6
:101eb40061012000d2020700a4c8bf00be020700cf
:101ec400a5c8bf00bc02070080c4b300ba02070063
:101ed400400620002003070097c8bf00528a200054
:101ee400418a2000a8ff0700a07d2800510120009e
:101ef400c3020700a4c8bf00af020700a5c8bf0003
:101f0400ad02070080c4b300ab0207000041eb0040
:101f140041c0b30020c0b3003ffe070040062000cc
:101f24000d03070094c8bf00528a2000418a200094
:101f340095ff0700007f280001012000b002070080
:101f4400a4c8bf009c020700a5c8bf009a020700ee
:101f540080c4b3009802070040062000fe02070078
:101f640095c8bf00528a2000418a200086ff0700de
:101f74001080280001012000a1020700a4c8bf00ae
:101f84008d020700a5c8bf008b02070080c4b30000
:101f94008902070040062000ef02070096c8bf0030
:101fa400528a2000418a200077ff07002081280000
:101fb4000101200092020700a4c8bf007e020700ae
:101fc400a5c8bf007c02070080c4b3007a020700e2
:101fd40040062000e002070097c8bf00528a200094
:101fe400418a200068ff0700308228000101200098
:101ff40083020700a4c8bf006f020700a5c8bf0082
:102004006d02070080c4b3006b02070032c0b30046
:1020140011c0b30040c2b300fffd0700400620001a
:10202400cd02070094c8bf00528a2000418a2000d4
:1020340055ff07004083280021012000700207009b
:10204400a4c8bf005c020700a5c8bf005a0207006d
:1020540080c4b300580207000080fa0000000600a4
:102064000000fa000040eb00a3fd0700400620003a
:10207400b902070094c8bf00528a2000418a200098
:1020840041ff070070842800f10020005c02070073
:10209400a4c8bf0048020700a5c8bf004602070045
:1020a40080c4b3004402070040062000aa020700cf
:1020b40095c8bf00528a2000418a200032ff0700e1
:1020c40070852800f10020004d020700a4c8bf005d
:1020d40039020700a5c8bf003702070080c4b30057
:1020e400350207000080fa00000006000000fa0034
:1020f4007bfe0700400620009702070094c8bf003b
:10210400528a2000418a20001fff070070862800a1
:10211400c10020003a020700a4c8bf00260207003d
:10212400a5c8bf002402070080c4b3002202070030
:10213400400620008802070095c8bf00528a20008c
:10214400418a200010ff0700408728001101200069
:102154002b020700a4c8bf0017020700a5c8bf00d0
:102164001502070080c4b300130207000080fa00c0
:10217400000006000200fa000000eb00000f7800e7
:1021840003fc0700010037001e0fe8003045800003
:10219400300090009e0f5000fbff3e000080fa00cc
:1021a400000006000200fa00f2ff07000d003700ed
:1021b400f0ff2700000f7800000000001e007800e8
:1021c40000f0a7000000ea000000ea004f00de0073
:1021d400004078001e0fe9000004e000f7ff3a0019
:1021e400e4ff0700304580001000780023fc07005e
:1021f4000004e000eeff3a000041eb008040eb00f9
:102204000040eb00cffc07000080fa00000006004d
:102214000200fa00004f78000041eb008040eb0020
:102224000040eb00c7fc070020c0b30032fd0700ec
:1022340085c0b30084c0b3008041eb000001eb0013
:102244008040eb001e4078009afc07000080fa00f2
:10225400000006000400fa00004f780011079800ff
:102264000041eb008040eb000040eb00b5fc0700b0
:1022740010c0b30020fd07009075280010407800be
:102284009e00900050fd07009075280010407800d3
:102294000080fb000001780001c3b3001e407800f9
:1022a4006cfc07000080fa00000006000600fa003b
:1022b400004f780011079800424798000041eb0056
:1022c4008040eb000040eb009efc070010c0b30010
:1022d40009fd07009e0090004e4090003afd070063
:1022e4004e4090000080fb000001780001c3b30061
:1022f4001e40780057fc07000080fa00000006002a
:102304000000fa00511680000000240000806000e4
:102314000000e00016003a000041eb008040eb00b2
:102324000040eb0087fc070086c8bf000080fb006c
:10233400700060000000e000060032009075280084
:10234400104078004184200029fd070010c0b3002c
:102354000800370086c8bf000080fb0068006000ea
:102364000000e0000200320020c0b300e2fc0700dd
:102374000040eb000080fa00000006000000fa00b4
:102384005116800000002400008060000000e0007e
:102394000c003a000041eb008040eb000040eb00f1
:1023a40068fc070086c8bf008080fb000002200094
:1023b400008060000000e0000200320010c0b300a2
:1023c400010037000040eb000080fa000000060026
:1023d4000000fa0051168000000024000080600014
:1023e4000000e00022003a000041eb008040eb00d6
:1023f4000040eb0053fc07008ac8bf000080fb00cc
:10240400680060000000e0000600320010c0b30065
:10241400a6fc070020c0b300b7fc070080c0b300cf
:10242400a2fc070086c8bf000080fb0070006000ab
:102434000000e000070032000040eb00aefc0700a3
:1024440084c8bf0041842000e9fc070010c0b30029
:102454000800370086c8bf000080fb0068006000e9
:102464000000e0000200320020c0b300a2fc07001c
:102474000040eb000080fa00000006000800fa00ab
:1024840040479800310798000040eb00004f780067
:102494000071220010079800140037007e01070025
:1024a40040c4b3008a0107008f010700004f780081
:1024b4001e407800e14f400008003a004e40900072
:1024c4000004e00003003200be0090004e40900083
:1024d400920107007401070007003700720107002a
:1024e4001e0090000000e900100798001e009000f4
:1024f4000000e000e9ff3a001e0090000000e00048
:1025040001003a00ffff37001e407800e14f400011
:1025140002003a0010c0b300a8e8b7001e407800db
:102524000080fa00000006000400fa00004f780062
:10253400110798000100370039000700a8c8bf0040
:102544000004e000fcff3200530107009e009000ed
:102554001e4078006901070053010700a868ef00d6
:102564000080fa00000006000600fa00004f780020
:102574001147980022479800230798001e409000b6
:102584000004e000050032000100370024000700c9
:10259400a8c8bf000004e000fcff32003e010700b1
:1025a4001e4078004a010700ae0090002e409000c3
:1025b4005a0107003c010700a868ef000080fa00f8
:1025c400000006000600fa00004f7800114798004a
:1025d40022479800230798001e4090000004e00062
:1025e40005003200010037000d000700a8c8bf0035
:1025f4000004e000fcff3200270107001e407800c1
:1026040033010700ae0090002e4090003b0107000c
:1026140025010700a868ef000080fa00000006000a
:102624000000fa008000eb000040eb0093ff07007d
:102634000080fa00000006000800fa00004f78004d
:102644001107980042479800330798009e009000b5
:102654001e407800b4ff0700be0090004e4090007a
:1026640086ff07000080fa00000006000000fa0060
:10267400a868ef000080fa00000006000000fa00dd
:10268400c9e2a900cde2a800c022a900c422a80082
:10269400c9a2a900c942a800c962a900c9c2a80068
:1026a40042a2a8001112800030fe2f0000806000ba
:1026b4008001b3001012880011128000c0ff2f00a7
:1026c400008060000010a0001012880042c2a9001f
:1026d4004302a8004342a90040c2a9008540a900c2
:1026e40041e2a8000080fa00000006000200fa009f
:1026f400004f78001e80fb0040128800000000009c
:102704002104800000402000008060000000e00000
:10271400fbff32008540a900401280000040780091
:102724000080fa00000006000600fa001007980076
:1027340041479800cde2a9000040eb00004f78002b
:10274400060037001e80fb009e00900000804000c1
:1027540010407800e5ff07001e4fe8004e4090004f
:102764009e40780080cf5000f6ff3900cde2a800eb
:102774000080fa00000006000600fa00881f7800b6
:102784001007980041479800cde2a9000040eb00f3
:10279400004f7800070037001e80fb009e00900069
:1027a4000084400000c0eb00d0ff0700004c78001c
:1027b4001e4fe8004e4090009e40780080cf5000ad
:1027c400f5ff3900cde2a8004f0478000080fa003c
:1027d400000006000000fa00d800070023010700eb
:1027e400f3000700a5ff07005000070060882800d9
:1027f40001012000820007006afe0700708928009a
:10280400010120007e000700c112200030002000da
:10281400ec00070000c1b30044e8b70044c8bf009f
:102824008080fb005084200001017800818a280008
:1028340083f70700020007001f000700fdff3700b1
:102844000000fa0042c8bf000004e0001800320093
:10285400908b2800910020006900070040c8bf0049
:102864000080fb00800078000080200064000700e6
:1028740040c8bf0044e8b70044c8bf008080fb00e4
:102884005084200001017800018020006cf70700cb
:1028940040c8bf000080fb00000178008000eb000e
:1028a400008020006df707004068ef004268ef00e9
:1028b4000080fa00000006000000fa00affe0700e6
:1028c400e14f500001003a00aa68ef00aac8bf0017
:1028d4000004e00013003a00308c2800610020005e
:1028e4004700070044c8bf000080fb008000780058
:1028f400508420004200070044c8bf008040e80024
:10290400304580002040900001417800418420003f
:1029140066fe070010c0b300aae8b700803e20009e
:102924008d0007000080fa00000006000000fa0095
:10293400c842a800c8e2a9000111800090ff2f003e
:1029440000806000001188002002a9002062a80015
:1029540070062000401188005105800080ff2f0080
:10296400008060000020a000500588004105800020
:10297400f0ff28000080600000e0a000400588000f
:102984009580a9009560a80021e2a8002342a80030
:102994000000000011118000002020000080600071
:1029a4000000e000fbff3a004005200020118800f1
:1029b4000080fa00000006000200fa00004f7800d0
:1029c4000000000011118000002020000080600041
:1029d4000000e000fbff3a001e80fb00201188008d
:1029e4000000000011118000001020000080600031
:1029f4000000e000fbff32000080fa000000060047
:102a04000600fa0010079800210798000000eb0068
:102a1400000f78000c003700000000001111800046
:102a240000202000008060000000e000fbff3a006e
:102a34001e0090001e004000104078000080fb0043
:102a4400201188001e0fe8002e0090009e007800e0
:102a5400808f5000f0ff3900000000001111800049
:102a640000102000008060000000e000fbff320046
:102a74000080fa00000006000000fa00c422a8004a
:102a84000080fa00000006000000fa00c422a90039
:102a94000080fa00000006000000fa00cde2a90060
:102aa4000080fa00000006000000fa00cde2a80051
:102ab4000080fa00000006000000fa0050168000b2
:102ac4004e00de00614060000080fa000000060055
:102ad4000200fa00004f78001e40780003ff070050
:102ae4000080fa00000006000000fa0000c0eb00bd
:102af400fefe07000080fa00000006000400fa0051
:102b0400004f7800110798009e4078001e00900046
:102b140005ff07000080fa00000006000400fa0028
:102b2400004f7800110798009e4078001e00900026
:102b340011ff07000080fa00000006000000fa0000
:102b4400213a8000f08f2f0000806000203a880036
:102b54000080fa00000006000600fa002007980032
:102b64000000eb00000f78000b0037000000eb00c2
:102b740010079800030037001e0090000000e800d2
:102b8400100798009e0090002e009000808f500047
:102b9400f9ff39001e0fe800703e20009e00780007
:102ba400808f5000f1ff36000080fa00000006001c
:102bb4000000fa00c0c2a900c4c2a9000080fa0043
:102bc400000006000600fa0010079800210798008c
:102bd4000000eb00000f780007003700c4c2a80013
:102be4002e009000dcff0700c4c2a9002e00900054
:102bf400d9ff07001e0fe8001e0090009e00780019
:102c0400808f5000f5ff39000080fa0000000600b4
:020000040000fa
:102c1400a40800000200000000000000a608000054
:102c24000200000002000000568700004408000073
:102c34004000000000000000a8080000020000009e
:102c440000000000840800002000000000000000d4
:102c5400000800004400000000000000aa08000072
:0c2c640002000000000000000000000062
:020000040000fa
:102c70000000fa000080eb00601988000080fa0074
:042c8000000006004a
:020000040000fa
:0200000401f009
:04000c008700000069
:020000040000fa
:0200000401f009
:04001000fb000000f1
:00000001FF
